:100000000C9448040C9479040C9479040C947904AD
:100010000C9479040C9479040C9479040C9479046C
:100020000C9479040C940D210C940D210C940D2149
:100030000C9479040C9479040C9479040C9479044C
:100040000C9479040C9479040C9479040C9479043C
:100050000C9479040C9479040C9479040C94742114
:100060000C9479040C9448220C941E220C9479046C
:100070000C9479040C9479040C9479040C9479040C
:100080000C9479040C9479040C9479040C947904FC
:100090000C94E8210C94BE210C9479040C947E22DB
:1000A0000C9479040C9479040C9479040C947904DC
:1000B0000C9479040C9479040C9479040C947904CC
:1000C0000C9479040C9479040C9479040C947904BC
:1000D0000C9479040C9479040C9479040C947904AC
:1000E0000C9479040C9467300C94B72B0C948D2BE2
:1000F0000C942B090C9405110C9426310C942E2F82
:100100000C94022C0C94792E0C9473310C94100BDB
:100110000C943D2F0C94FA310C94322B0C94AB3090
:100120000C9413050C942A050C94702C0C94A22D9D
:100130000C94C2310C947C2D0C947A0A0C942F2BC5
:100140000C94B7300C9432050C947F310C943E0F14
:100150000C94090B0C944E310C94702D0C946E0978
:100160000C94382D0C94B62D0C94F7080C94B032E6
:100170000C9456330C943E310C94FC2C0C94592B5B
:100180000C9438050C9473300C944A310C948232E0
:100190000C943D2B0C948C2C0C94F3090C9464322D
:1001A0000C94AB2B0C94152F0C94AE0E0C94242BAA
:1001B0000C940E2C0C945A310C9446050C944F3030
:1001C0000C94C72B0C94480A0C945F240C94463270
:1001D0000C948E320C9424050C9405050C94273055
:1001E0000C94BB2F0C94022B0C94CC300C94E12D6E
:1001F0000C9474090C94E32F0C947A090C947032CB
:100200000C94982C0C945D2D0C9449090C948C2F13
:100210000C94EF100C94020B0C9494300C942C2D35
:100220000C94F40A0C94E02C0C947C2C0C946E0826
:100230000C94082D0C9478090C9431330C94D12E25
:100240000C94C5080C943C2E0C94900A0C94B9079D
:100250000C94EC2C0C946C080C94FB0A0C94D83085
:100260000C94170B0C948B2D0C94762F0C949808EF
:100270000C944B2C0C94E2320C9476090C9488303C
:100280000C94A9310C94552C0C9437320C94F92A07
:100290000C947E080C9417050C94612E0C94A111FB
:1002A0000C94C22D0C94E4300C94EE310C94B82EC6
:1002B0000C9472090C9445050C94052E0C94D32BC8
:1002C0000C9423330C94312F0C9451070C9410335D
:1002D0000C94092F0C941B300C9428110C94112EA3
:1002E0000C94302E0C947A2B0C94270A0C943C0519
:1002F0000C94622B0C947C090C94F4080C94D42F6D
:100300000C945B300C948E110C941A050C94A82E4E
:100310000C9452320C946E2B0C949A310C940F0561
:100320000C9454120C94992B0C946F080C947F2D00
:100330000C947F060C94F0320C94D22C0C94A232C4
:100340000C9497110C944A110C94D2090C94962D8C
:100350000C9402330C94552E0C9440050C946D2E85
:100360000C94C62C0C94C82F0C9451120C94CE0AE9
:100370000C944B2F0C940B050C94ED0A0C942E0549
:100380000C94E50A0C940F070C946D080C944332FE
:100390000C94F0300C94D7100C94BB060C94C42E23
:1003A0000C94ED2D0C9401070C94872E0C942005D1
:1003B0000C9470090C9489110C948E310C94CF100C
:1003C0000C94B5310C94AC060C9484110C944A0531
:1003D0000C94910853530053533034464631413006
:1003E000430A005B534341505D20204178697320EC
:1003F000556E6B6F776E005B534341505D2020520A
:10040000656C206D6F766520005B534341505D2025
:1004100020416273206D6F766520005B534341502D
:100420005D2020556E6B6F776E005B534341505DCE
:100430002020536574206D617820616363656C656D
:10044000726174696F6E20005B534341505D2020E0
:10045000536574206D617820737065656420005B5E
:10046000534341505D202045786974696E672E2E94
:100470002E005B534341505D202053687574646FB8
:10048000776E20616C6C005B534341505D202048C7
:100490006F6D696E6720616C6C000A5B534341505D
:1004A0005D204C696D6974733A000A5B5343415097
:1004B0005D202053706565643A005B534341505D95
:1004C00020203C5468207C205A207C2052207C2014
:1004D00054733E0A5B534341505D2020506F736953
:1004E00074696F6E3A005B534341505D2020537432
:1004F0006F7070656420616C6C000A5B6563686F87
:100500005D2020005B534341505D2020436F6E749B
:10051000726F6C20656E61626C65642E2E2E0A000F
:100520007C202020207C202061203C617869734958
:10053000443E203C616363656C65726174696F6EF3
:100540003E202D2D2053657420616363656C6572B8
:100550006174696F6E007C202020207C2020732035
:100560003C6178697349443E203C6D617853706505
:1005700065643E202D2D2D2D2D2D20536574206D6D
:100580006178207370656564007C202020207C20C9
:10059000206D203C6178697349443E203C6D6F7644
:1005A000653E202D2D2D2D2D2D2D2D2D2D205265EF
:1005B0006C6174697665206D6F7665007C20202003
:1005C000207C202074203C6178697349443E203CA3
:1005D000706F736974696F6E3E202D2D2D2D2D2D3A
:1005E000204162736F6C757465206D6F7665007C59
:1005F000202020207C202065202D2D2D2D2D2D2DFF
:100600002D2D2D2D2D2D2D2D2D2D2D2D2D2D2D2D1A
:100610002D2D2D20457869742053434150007C20B6
:100620002020207C20206B202D2D2D2D2D2D2D2DBB
:100630002D2D2D2D2D2D2D2D2D2D2D2D2D2D2D2DEA
:100640002D2D2053687574646F776E20616C6C007B
:100650007C202020207C202068202D2D2D2D2D2D4C
:100660002D2D2D2D2D2D2D2D2D2D2D2D2D2D2D2DBA
:100670002D2D2D2D20486F6D6520616C6C206178CB
:100680006973007C202020207C202072202D2D2DBD
:100690002D2D2D2D2D2D2D2D2D2D2D2D2D2D2D2D8A
:1006A0002D2D2D2D2D2D2D20526561642063757209
:1006B00072656E7420617869732076617269616217
:1006C0006C6573007C202020207C202070202D2D44
:1006D0002D2D2D2D2D2D2D2D2D2D2D2D2D2D2D2D4A
:1006E0002D2D2D2D2D2D2D2D2053746F7020616CEF
:1006F0006C2061786973007C202020207C202028D9
:100700004E6F2073706163657320696E20616E792E
:1007100020636F6D6D616E647329007C2020202042
:100720007C2020506F737369626C6520636F6D6D00
:10073000616E64732061726520617320666F6C6CFA
:100740006F77733A005B534341505D2020536572CD
:1007500069616C20436F6E74726F6C2041786973AD
:1007600020506F736974696F6E696E6700000021B5
:1007700000240027002A002D003000330001010072
:1007800000040107010A0100002200250028002BB7
:10079000002E003100340002010000050108010BA9
:1007A00001000020002300260029002C002F003229
:1007B0000000010000030106010901050505050708
:1007C0000508080808020202020A0A0808040404CC
:1007D00004010101010101010103030303030303F8
:1007E00003040707070C0C0C0C0C0C0C0C02020287
:1007F0000206060606060606060B0B0B0B0B0B0B7A
:100800000B01021020200808102040102040800218
:100810000102010804020101020408102040808046
:1008200040201008040201800402018040201008CA
:1008300004020108040201010204081020408001A2
:100840000204081020408000000A0B02090C0D0E63
:100850000807030401000000000000000000000081
:100860000000000000000000000000000000000088
:100870000000001211100000000000000000000045
:1008800000000000000000000000000000005F24E5
:1008900011241FBECFEFD1E2DEBFCDBF00E00CBF01
:1008A00028E0A8EBB3E001C01D92AA35B207E1F73A
:1008B00013E0A0E0B2E0E6E6FFE600E00BBF02C016
:1008C00007900D92A83BB107D9F714E0C8E4D4E033
:1008D00000E006C021970109802FFE010E94E73544
:1008E000C734D10780E00807A9F70E9441250C947E
:1008F000B1370C9400000F931F93CF93DF93582FC1
:10090000FC0180E077E0919148E0282F30E0A92FAA
:10091000B0E08901000F012F001F110B9170C92F4A
:1009200090E0D92F880F0C171D0721F0C901880FFF
:10093000991F8727B595A7959A2F415031F79E2F7C
:10094000951B961700F3DF91CF911F910F9108959A
:10095000E0918204F0918304E817F90769F4A38910
:10096000B4899C918589809589238C931092830406
:100970001092820481E0089580E00895CF93DF9380
:10098000EC018A8D9B8D892B01F1809182049091DD
:1009900083048C179D07C9F0009711F00E94A804EA
:1009A0008E8D8E7F8E8F1092810410928004D09352
:1009B0008304C0938204EB89FC8980819D89892B03
:1009C000808381E0DF91CF91089580E0FBCF81505B
:1009D000823108F05AC0E82FF0E08827ED50FB4F35
:1009E0008F4F0C94E7351305170505050B050F050B
:1009F00045051A05200524052A052E05320538056A
:100A00003C054505400546054A05809180008F77E5
:100A1000809380000895809180008F7DF9CF809130
:100A20008000877FF5CF84B58F7784BD089584B526
:100A30008F7DFBCF8091B0008F778093B0000895B9
:100A40008091B0008F7DF9CF809190008F77809357
:100A500090000895809190008F7DF9CF8091900053
:100A6000877FF5CF8091A0008F778093A0000895B5
:100A70008091A0008F7DF9CF8091A000877FF5CF76
:100A8000809120018F77809320010895809120012B
:100A90008F7DF9CF80912001877FF5CFCF93DF93B2
:100AA000282F30E0F901E95BF74F8491F901EF5FFE
:100AB000F74FD491F901E554F84FC491CC23A1F03C
:100AC00081110E94E704EC2FF0E0EE0FFF1FEF55BD
:100AD000F84FA591B491EC91ED2381E090E009F4F9
:100AE00080E0DF91CF91089580E090E0FACF1F93EE
:100AF000CF93DF93282F30E0F901E95BF74F849122
:100B0000F901EF5FF74FD491F901E554F84FC49123
:100B1000CC23A9F0162F81110E94E704EC2FF0E0FE
:100B2000EE0FFF1FE957F84FA591B4918FB7F894D6
:100B3000EC91111108C0D095DE23DC938FBFDF91BB
:100B4000CF911F910895DE2BF8CFCF93DF9390E0E4
:100B5000FC01EF5FF74F24918554984FFC0184917D
:100B60008823C9F090E0880F991FFC01E359F84FE2
:100B7000A591B491FC01E957F84FC591D491611149
:100B80000DC09FB7F8948C91209582238C93888117
:100B9000282328839FBFDF91CF910895623051F4BD
:100BA0009FB7F8943C91822F809583238C93E881A2
:100BB0002E2BEFCF8FB7F894EC912E2B2C938FBF69
:100BC000EACF865320917B00982F987F277F922B26
:100BD00090937B008770806480937C0080917A0082
:100BE000806480937A0080917A0086FDFCCF8091AA
:100BF00078009091790008953FB7F89480917C0433
:100C000090917D04A0917E04B0917F0426B5A89BAD
:100C100005C02F3F19F00196A11DB11D3FBFBA2F8E
:100C2000A92F982F8827BC01CD01620F711D811D4E
:100C3000911D42E0660F771F881F991F4A95D1F7D3
:100C400008958F929F92AF92BF92CF92DF92EF92D0
:100C5000FF924B015C010E94FC056B017C010E942C
:100C6000FC056C197D098E099F09683E734081055A
:100C70009105A8F321E0821A9108A108B10888EE35
:100C8000C80E83E0D81EE11CF11C81149104A1045C
:100C9000B10429F7FF90EF90DF90CF90BF90AF9015
:100CA0009F908F9008950F931F93CF93DF938C01A4
:100CB000D0E0C0E0809150080E944E05882359F092
:100CC0002A960C171D0768F06AE070E080E090E05B
:100CD0000E942106EFCF81E0DF91CF911F910F910C
:100CE000089580E0F9CF2FB7F8946091780470915F
:100CF000790480917A0490917B042FBF0895AF927C
:100D0000BF92CF92DF92EF92FF920F931F93CF93F8
:100D1000DF936C017B018B01040F151FEB015E015A
:100D2000AE18BF08C017D10759F06991D601ED91EF
:100D3000FC910190F081E02DC6011995892B79F77E
:100D4000C501DF91CF911F910F91FF90EF90DF9040
:100D5000CF90BF90AF900895FC01538D448D252F07
:100D600030E0842F90E0821B930B541710F0CF9645
:100D7000089501970895FC01918D828D981761F077
:100D8000A28DAE0FBF2FB11D5D968C91928D9F5F8E
:100D90009F73928F90E008958FEF9FEF08950F93C8
:100DA0001F930E94730660931E0570931F05809326
:100DB00020059093210586E195E00E94BB0697FFF0
:100DC0001DC00E94730600911E0510911F05209101
:100DD000200530912105601B710B820B930B009154
:100DE0001A0510911B0520911C0530911D056017F7
:100DF000710782079307F8F28FEF9FEF1F910F9112
:100E00000895FC01918D828D981731F0828DE80F45
:100E1000F11D858D90E008958FEF9FEF0895FC01FF
:100E2000918D228D892F90E0805C9F4F821B9109CC
:100E30008F73992708958AE797E00E940F0721E0B2
:100E4000892B09F420E0822F089586E195E00E9425
:100E50000F0721E0892B09F420E0822F0895FC017F
:100E6000A48DA80FB92FB11DA35ABF4F2C91848D0B
:100E700090E001968F739927848FA689B7892C9368
:100E8000A089B1898C91837080648C93938D848DBB
:100E9000981306C00288F389E02D80818F7D8083BE
:100EA0000895EF92FF920F931F93CF93DF93EC017E
:100EB00081E0888F9B8D8C8D98131AC0E889F98901
:100EC000808185FF15C09FB7F894EE89FF89608304
:100ED000E889F98980818370806480839FBF81E085
:100EE00090E0DF91CF911F910F91FF90EF900895C7
:100EF000F62E0B8D10E00F5F1F4F0F731127E02EA2
:100F00008C8D8E110CC00FB607FCFACFE889F989D9
:100F1000808185FFF5CFCE010E942F07F1CFEB8DA9
:100F2000EC0FFD2FF11DE35AFF4FF0829FB7F894AD
:100F30000B8FEA89FB8980818062CFCF0F931F934B
:100F4000CF93DF938C01D0E0C0E0F801EC0FFD1FE0
:100F50006491662341F086E195E00E945107892B58
:100F600011F02196F2CFCE01DF91CF911F910F9119
:100F70000895CF93DF93EC01888D8823B9F0AA8977
:100F8000BB89E889F9898C9185FD03C0808186FD44
:100F90000DC00FB607FCF7CF8C9185FFF2CF808193
:100FA00085FFEDCFCE010E942F07E9CFDF91CF91D2
:100FB000089580E090E0892B29F00E942507811197
:100FC0000E94000080E090E0892B29F00E941B071E
:100FD00081110E94000080E090E0892B49F080E0C0
:100FE00090E0892B29F00E94000081110E940000EE
:100FF00080E090E0892B49F080E090E0892B29F097
:101000000E94000081110C94000008952091FC03BF
:10101000260F3327331F21323105ECF42091EE04E3
:10102000FC0190E080E0243069F082E00895A09116
:10103000FC032191AC0146525C4FA40FB52FB11DAA
:101040002C930196861798F38091FC03680F6093A8
:10105000FC0380E0089581E008951092EE0481E0A1
:101060008093ED041092E80461E084E10E9477052A
:1010700061E085E10E947705E9EBF0E080818E7FF9
:10108000808380818D7F808388E48093B80085E4AD
:101090008093BC000895CF93DF9391E09093D903A0
:1010A0008823B9F0C091B800D091BA008091BC00FB
:1010B0008A7B8093BC0060E084E10E94770560E059
:1010C00085E10E9477050E942D08D093BA00C09355
:1010D000B800DF91CF910895089508950895E091A3
:1010E000F5048091F404E81730F4F0E0EA50FB4F87
:1010F000808190E008958FEF9FEF08959091F5041F
:101100008091F4042FEF3FEF981748F4E92FF0E0B7
:10111000EA50FB4F208130E09F5F9093F504C901B6
:1011200008958091F4049091F504891B990B08951A
:10113000CF92DF92EF92FF920F931F93CF93DF93A3
:101140007C01CB018A012091A704222389F0EB01C5
:101150006B01C40ED51ECC15DD0569F06991D70170
:10116000ED91FC910190F081E02DC7011995F3CF2D
:10117000642F0E940608C801DF91CF911F910F9143
:10118000FF90EF90DF90CF900895CF93DF931F9261
:10119000CDB7DEB769832091A7042223F9F020910F
:1011A000A404203258F021E030E0FC013383228394
:1011B00090E080E00F90DF91CF9108958091A50499
:1011C000E82FF0E0EC57FB4F998190838F5F80937D
:1011D000A5048093A40481E090E0ECCF61E0CE010F
:1011E00001960E940608F7CF90E080E00895CF9323
:1011F000DF93FC012381222359F1EC0161E084811A
:101200000E94A50561E08D810E94A5058B81843037
:1012100011F08830B1F461E08E810E94A50561E093
:101220008F810E94A5058FA58F3F91F061E00E94FC
:10123000A5056EA581E068278FA5DF91CF910C945D
:101240007705833011F0863071F761E08E81E9CF48
:10125000DF91CF910895CF93DF93FC012381222367
:10126000A9F0EC010190F081E02D0480F581E02DE2
:1012700060E019958FA58F3F49F061E00E94A505B8
:101280006EA58FA5DF91CF910C947705DF91CF915B
:101290000895DC01ED91FC9111972481358147700F
:1012A0005527662777274150510961097109473051
:1012B00051056105710570F4FA018827ED59F64F63
:1012C0008F4F0C94E7356E0970097209740976091D
:1012D00078097A0961E0CD01F901199465E0FBCF45
:1012E00064E0F9CF66E0F7CF62E0F5CF6AE0F3CFD4
:1012F00068E0F1CF69E0EFCFCF93DF93EC01CB0152
:10130000BA0126E030E040E050E00E94C83562308B
:1013100071058105910589F16CF4611571058105EF
:101320009105D1F06130710581059105F9F0DF91EA
:10133000CF910895643071058105910561F124F123
:10134000653071058105910591F7E881F981048087
:10135000F581E02D66E006C0E881F9810480F58121
:10136000E02D64E0CE01DF91CF911994E881F981FD
:101370000480F581E02D65E0F5CFE881F9810480F6
:10138000F581E02D61E0EECFE881F9810480F581FF
:10139000E02D63E0E7CFE881F9810480F581E02D5D
:1013A00062E0E0CFDC01ED91FC910480F581E02D5D
:1013B000437055276627772742305105610571052F
:1013C00071F0433051056105710559F04130510507
:1013D0006105710511F065E0199466E0FDCF6AE0E2
:1013E000FBCF69E0F9CFCF93DF93EC01CB01BA01DA
:1013F00023E030E040E050E00E94C83561307105E4
:101400008105910599F06230710581059105A9F07A
:10141000672B682B692BC1F4E881F9810480F58181
:10142000E02D64E0CE01DF91CF911994E881F9813C
:101430000480F581E02D61E0F5CFE881F981048039
:10144000F581E02D62E0EECFDF91CF910895DC01D0
:10145000ED91FC910480F581E02D437055276627BE
:101460007727423051056105710571F04330510510
:101470006105710559F0413051056105710511F0A3
:1014800062E0199463E0FDCF61E0FBCF60E0F9CF4B
:10149000CF93DF93EC01E881F9810480F581E02DA1
:1014A0008A8160E0811162E0CE011995E881F981BD
:1014B0000480F581E02D8A8161E0811163E0CE0135
:1014C00019958CA59DA58230910538F0880F991F3C
:1014D000880F991F05970197F1F7E881F98104803A
:1014E000F581E02D8A8160E0811162E0CE01DF911B
:1014F000CF911994CF93DF93EC0120E030E0A90164
:101500006C897D898E899F890E943A3718162CF440
:10151000E8A9F9A9DF91CF911994EAA9FBA9FACF1B
:10152000CF92DF92EF92FF920F931F93CF93DF93AF
:10153000DC011396CC91C43039F0C83059F1C33076
:1015400019F0C63049F1C2E08C010C5F1F4FF12C3D
:10155000E12CC62ED12CD1E0F8016481C6010E2CFD
:1015600002C0959587950A94E2F780FD6D270F5F7D
:101570001F4F80810E947705BFEFEB1AFB0AEC1624
:1015800058F3DF91CF911F910F91FF90EF90DF9073
:10159000CF900895C4E0D8CFC3E0D6CFDC01139636
:1015A000EC911397E93008F042C0F0E08827E4524C
:1015B000F54F8F4F0C94E735E50AED0AF40AFB0A64
:1015C000020B170B090B170B100BED91FC911197E8
:1015D0000084F185E02DCD011994ED91FC911197D6
:1015E0000284F385E02DF7CFED91FC9111970484EF
:1015F000F585E02DF0CFED91FC9111970684F785EC
:10160000E02DE9CFED91FC9111970088F189E02D53
:10161000E2CFED91FC9111970288F389E02DDBCFA9
:10162000ED91FC9111970488F589E02DD4CF0895B0
:101630004F925F926F927F928F929F92AF92BF92E2
:10164000CF92DF92EF92FF920F931F93CF93DF938E
:10165000EC01C888D988EA88FB888C859D85AE8591
:10166000BF85C81AD90AEA0AFB0A6C897D898E8966
:101670009F899B01AC010E94D2344B015C016C8DAF
:101680007D8D8E8D9F8D9B01AC010E9426369B0126
:10169000AC01C501B4010E9492360E940437C11406
:1016A000D104E104F10409F0B1C062307105810593
:1016B00091050CF0CBC01CA21DA21EA21FA21C8A69
:1016C0001D8A1E8A1F8A1CAA1DAA1EAA1FAADF9194
:1016D000CF911F910F91FF90EF90DF90CF90BF902F
:1016E000AF909F908F907F906F905F904F900895F4
:1016F0001016110612061306B4F46C157D058E053E
:101700009F051CF42A812111A1C09B01AC018827EF
:101710009927DC01821B930BA40BB50B8CAB9DAB03
:10172000AEABBFAB93C0011511052105310509F41E
:101730008DC06C157D058E059F050CF087C08A81D4
:10174000882309F483C030952095109501951F4F8B
:101750002F4F3F4F0CAB1DAB2EAB3FAB77C00115EE
:1017600011052105310509F471C08824992454011B
:101770008C189D08AE08BF08681579058A059B0579
:101780000CF064C08A81811161C0DDCFCCACDDACCE
:10179000EEACFFACA7019601C701B6010E94263648
:1017A0002B013C01C501B4010E94733420E030E0FC
:1017B00040E850E40E94D23420E030E040E85FE3AB
:1017C0000E9426369B01AC01C301B2010E949236F1
:1017D0009B01AC01C701B6010E9425363B016C019B
:1017E000FE01E05CFF4FE080F180028113819701F0
:1017F000A8010E943A37181614F473018601C70134
:10180000D8018CAF9DAFAEAFBFAF3AC00CA91DA938
:101810002EA93FA91C141D041E041F040CF468CF3C
:1018200010161106120613060CF099CF0027112787
:1018300098010C191D092E093F09601771078207CD
:1018400093070CF062CF2A8121115FCF8CA89DA84D
:10185000AEA8BFA881149104A104B10409F096CFE9
:1018600088AD99ADAAADBBAD8CAF9DAFAEAFBFAFEC
:1018700081E01C141D041E041F040CF080E08A8308
:101880003FEF831A930AA30AB30A8CAA9DAAAEAAB1
:10189000BFAACCACDDACEEACFFACC701B6010E9478
:1018A0000B376CA37DA38EA39FA3A701960160E0D5
:1018B00074E284E799E40E9492366C8B7D8B8E8B68
:1018C0009F8B2A81211103CF90586C8B7D8B8E8B3F
:1018D0009F8BFDCECF92DF92EF92FF920F931F93DB
:1018E000CF93DF93EC016A017B0120E030E0A90196
:1018F000CB01B6010E946C3487FF04C0F7FAF09464
:10190000F7F8F094A7019601688D798D8A8D9B8DEB
:101910000E946C34882309F446C0C88ED98EEA8EA2
:10192000FB8E8E01005C1F4FA701960160E074E200
:1019300084E799E40E949236F80160837183828380
:1019400093838CA99DA9AEA9BFA9181619061A06DA
:101950001B064CF56C897D898E899F899B01AC01A2
:101960000E94D2346B017C016C8D7D8D8E8D9F8D9C
:101970009B01AC010E9426369B01AC01C701B60158
:101980000E9492360E9404376CAB7DAB8EAB9FAB4E
:10199000CE01DF91CF911F910F91FF90EF90DF90DB
:1019A000CF900C94180BDF91CF911F910F91FF9066
:1019B000EF90DF90CF900895CF92DF92EF92FF9259
:1019C000CF93DF93EC018CA19DA1AEA1BFA1892B88
:1019D0008A2B8B2BB9F10E94FC056B017C0188A539
:1019E00099A5AAA5BBA5B701A601481B590B6A0B6F
:1019F0007B0B8CA19DA1AEA1BFA1481759076A0717
:101A00007B0700F18C859D85AE85BF852A812223C9
:101A1000D1F10196A11DB11D8C879D87AE87BF872F
:101A20004C855D856E857F85E881F9810680F7812B
:101A3000E02DCE011995C8A6D9A6EAA6FBA6CE012F
:101A40000E94180B20E030E0A9016C897D898E8905
:101A50009F890E946C3481111AC081E0C888D9889E
:101A6000EA88FB884C855D856E857F85C416D50622
:101A7000E606F70609F480E0DF91CF91FF90EF9042
:101A8000DF90CF9008950197A109B109C5CF81E0FA
:101A9000F3CF0F931F93FC010089118922893389A9
:101AA000041715072607370741F0408B518B628BCF
:101AB000738B1F910F910C94180B1F910F91089528
:101AC0004F925F926F927F928F929F92AF92BF924E
:101AD000CF92DF92EF92FF92CF93DF93EC014C888D
:101AE0005D886E887F8820E030E0A901C301B201E3
:101AF0000E946C34882309F447C0A3019201C301FA
:101B0000B2010E94D2346B017C016C8D7D8D8E8D73
:101B10009F8D9B01AC010E9426369B01AC01C70141
:101B2000B6010E9492360E9404376B017C018C84BE
:101B30009D84AE84BF8420E030E0A901C301B201DE
:101B40000E943A37B701A6011816CCF44F5F5F4FD9
:101B50006F4F7F4F480D591D6A1D7B1DCE01DF91D0
:101B6000CF91FF90EF90DF90CF90BF90AF909F907C
:101B70008F907F906F905F904F900C94490D40959F
:101B8000509560957095E6CFDF91CF91FF90EF90E3
:101B9000DF90CF90BF90AF909F908F907F906F908D
:101BA0005F904F900895CF93DF93EC010E94490D11
:101BB000CE010E94DC0C8111FBCFDF91CF91089503
:101BC000CF93DF93EC016C81617088810E9477056F
:101BD0006C81669561708A81DF91CF910C94770555
:101BE000CF92DF92EF92FF921F93CF93DF93EC019E
:101BF00090E080E00E94713425ED34E045E352E44A
:101C00000E94D23420E030E04AE754E40E94923649
:101C10006B017C012AE037ED43EA5CE369857A8554
:101C20008B859C850E942636A70196010E94D2349E
:101C300026E636E646EA5EE30E94923620E030E091
:101C400040E85FE30E9425360E940B37162FE8819B
:101C5000F9810480F581E02D603108F060C061E019
:101C6000CE0119952AE037ED43EA5CE369857A8570
:101C70008B859C850E942636A70196010E94D2344E
:101C80002CEE31E548E35EE30E94923620E030E03E
:101C900040E85FE30E9425360E940B37162F103272
:101CA00008F01FE1912F9F718B81807E892B8B83A0
:101CB0002A81382F8C81482F4F7050E0E881F981BC
:101CC0000190F081E02D60E1CE011995612F70E067
:101CD00090E080E00E9473342D853E854F855889C1
:101CE0000E94D2340E940B37862F8F716A81607EEA
:101CF000682B6A83262F3B818C81482F4F7050E0E0
:101D0000E881F9810190F081E02D60E1CE01DF9161
:101D1000CF911F91FF90EF90DF90CF90199460E0EA
:101D2000CE011995BCCFFC01A4A5B5A5109749F02B
:101D3000ED91FC9111970190F081E02DCD01199565
:101D4000089582A593A5009739F0DC01ED91FC91EF
:101D50000190F081E02DF3CF80E00895CF92DF92E3
:101D6000EF92FF920F931F93CF93DF9300D000D099
:101D70001F921F92CDB7DEB77C0118861F8285E0C7
:101D80008983F70182A98A8360686B835C834D83B2
:101D90003E832F8367E0CE0101960E947B048887F3
:101DA000F70182A593A5892B31F080A991A900970D
:101DB00011F00E94E00D8E010F5F1F4F6E01F9E0E0
:101DC000CF0ED11CF80161918F01C7010E94930EC3
:101DD000F70121893289820F932F911D928B818B7C
:101DE0000C151D0579F762E070E080E090E00E943C
:101DF000210628960FB6F894DEBF0FBECDBFDF9147
:101E0000CF911F910F91FF90EF90DF90CF900895A9
:101E1000FC01A4A5B5A5109741F0ED91FC91119797
:101E20000284F385E02DCD01199482A593A5009736
:101E300039F0DC01ED91FC910284F385E02DF4CFC3
:101E400090E080E00895FC01A4A5B5A5109741F0AD
:101E5000ED91FC9111970084F185E02DCD0119944D
:101E600082A593A5009739F0DC01ED91FC910084E7
:101E7000F185E02DF4CF90E080E008952F923F921D
:101E80004F925F926F927F928F929F92AF92BF928A
:101E9000CF92DF92EF92FF920F931F93CF93DF9336
:101EA000CDB7DEB761970FB6F894DEBF0FBECDBFDA
:101EB0001C011C861B8685E08987F10182A98A871F
:101EC0006B8763E0CE0109960E947B048C87F2E069
:101ED000F98B9E01235F3F4F3E872D87F10184A53B
:101EE00095A5009761F00E94BE04C1010E94230FD6
:101EF000181619067CF4C1010E94080FF6CF82A5BE
:101F000093A5892B91F380A991A9009771F30E9461
:101F1000E00DEBCFF10186A597A5009741F061E0B8
:101F20000E94770561E0F10186A50E94A5058E015A
:101F3000075F1F4FF80161918F01C1010E94930E4D
:101F40002D853E8502171307A9F7F10186A597A5F0
:101F5000009719F062E00E94A50562E070E080E061
:101F600090E00E9421060E9473062B013C018985A6
:101F7000CB84D12CF12CE12CDD24DA94E82A812CBD
:101F8000912C540105E010E00E947306641575055C
:101F90008605970531F00150110909F474C02B0131
:101FA0003C01C1010E94080F97FD0FC07A2D692DD9
:101FB000582D44274C019924092C000CAA08BB0871
:101FC000842A952AA62AB72ABB24C814D904EA046D
:101FD000FB04D1F626013701812C912C54010E947B
:101FE00073066B017C0125E030E0388B2F8710E011
:101FF0000E9473066C157D058E059F0549F0EF85DF
:10200000F8893197F88BEF87EF2BE9F16B017C01B1
:10201000C1010E94080FDC0197FD1CC09201A301C1
:10202000B401C50108E00E94EF35BB27EB2FEE0F8E
:10203000EE0B422E4A2A532E5B2A6E2E642A7E2EE7
:10204000752A8E2E862A9E2E972AAE2EA82ABE2E5E
:10205000B92A1F5F153061F6F10186A597A5009793
:1020600041F061E00E94770561E0F10186A50E94E0
:10207000A505C1010E94230F1816190664F4C101B9
:102080000E94080FF6CF412C512C612C712C812C11
:10209000912CA12CB12CF10184A595A5009711F0EC
:1020A0000E94A80462E070E080E090E00E942106B7
:1020B000F101178A9201A301B401C50108E30E944E
:1020C0000A3629839201A301B401C50100E30E94ED
:1020D0000A362A839201A301B401C50108E20E94D5
:1020E0000A362B839201A301B401C50100E20E94CC
:1020F0000A362C839201A301B401C50108E10E94B4
:102100000A362D839201A301B401C50100E10E94AA
:102110000A362E839201A301B401C50108E00E9492
:102120000A362F83488667E0CE0101960E947B0421
:10213000481202C0411011C081E0F101878BF9897A
:10214000F13019F021E0298BC9CE412C512C612CA2
:10215000712C812C912CA12CB12C9201A301B401E2
:10216000C50108E00E940A36B901CA0161960FB69E
:10217000F894DEBF0FBECDBFDF91CF911F910F91BD
:10218000FF90EF90DF90CF90BF90AF909F908F9097
:102190007F906F905F904F903F902F900895DC015B
:1021A000ED91FC910280F381E02D6FE61994262FCA
:1021B0002F70DC0195966C919597607F622B9596B8
:1021C0006C93959792962D913D914D915C91959739
:1021D000ED91FC910190F081E02D6CE61994DC0109
:1021E00094962C91949760FB21F994962C93949754
:1021F00092962D913D914D915C919597ED91FC9129
:102200000190F081E02D6CE61994DC0193968C919D
:10221000939760FB87F993968C93939761FB88273C
:1022200080F994966C9194976E7F682B94966C933A
:10223000949792962D913D914D915C919597ED914A
:10224000FC9111970190F081E02D6CE6CD0119947D
:10225000DC0192968C91929760FB87F992968C9311
:1022600092976695677093968C919397887F682B69
:1022700093966C93939792962D913D914D915C918D
:102280009597ED91FC9111970190F081E02D6CE60E
:10229000CD0119946770262F2295207FDC0192963C
:1022A0006C9192976F78622B92966C93929792961C
:1022B0002D913D914D915C919597ED91FC910190FF
:1022C000F081E02D6CE61994262F2F70DC01929698
:1022D0006C919297607F622B92966C9392979296F4
:1022E0002D913D914D915C919597ED91FC910190CF
:1022F000F081E02D6CE61994DC01ED91FC910280F7
:10230000F381E02D6CE619940E947C11892F8F7067
:1023100008950E947C118695817008950E947C1119
:10232000771F7727771F8170880F872B08950E946A
:102330007C11862F881F8827881F7770770F872B3F
:1023400008950E947C11862F829587700895CF93FF
:10235000DF93D82F8BE896E00E94DC0CC82F87E42F
:1023600096E00E94DC0CC82B83E096E00E94DC0C17
:10237000C82B8FEB95E00E94DC0C81118D2F8C2BEC
:1023800091E08927DF91CF91089580916B0482308D
:10239000E9F038F4882369F0813051F110926B0430
:1023A00013C0833029F18430C9F710926B0481E0A7
:1023B000089548EB5BE060E070E083E096E00E9407
:1023C000490D81E080936B0480E0089548E65BE06E
:1023D00060E070E08BE896E00E94490D45E050E037
:1023E00060E070E087E496E00E94490D83E0EACF68
:1023F00081E00E94A711882339F380916B048F5FDD
:10240000E1CF61E080E30E94770561E08AE20E940B
:10241000770561E082E20E94770561E08BE10E942E
:10242000770560E087E198E00E94641160E081E454
:1024300097E00E94641160E088E097E00E946411D8
:1024400060E08FEC96E00E9464118091A002909170
:10245000A102A091A202B091A30282609260A26048
:10246000B2608093A0029093A102A093A202B093C5
:10247000A30210926E0408958BE896E00E94600D0E
:1024800087E496E00E94600D83E096E00E94600D74
:102490008FEB95E00E94600D10926E0410926B0419
:1024A0000895861B970B0895860F971F089596270A
:1024B00028E0AC01880F991F57FF03C035E0832740
:1024C00090582150B1F70895FC01E60FF11D80816D
:1024D00090ED980F9A3010F099EC980F9295907FAC
:1024E000218180ED820F8A3010F089EC820F892BD8
:1024F000089587ED93E00C949E07FC01608170E0E5
:1025000090E080E0982F872F762F66272181622B1D
:10251000982F872F762F66272281622B982F872F5F
:10252000762F66272381622B0895FA019083818399
:102530007283638308958F929F92AF92BF92CF92DE
:10254000DF92EF92FF920F931F93CF93DF9300D010
:1025500000D01F921F92CDB7DEB76091A00270919C
:10256000A1028091A2029091A302AE014B5F5F4F46
:102570000E9495128CE2A82E83E0B82ECE0105961B
:102580006C018E010F5F1F4FF12C902EE12E8824DD
:102590008A94D5018D919D915D01DC01ED91FC91B5
:1025A0000084F185E02D1995F6016115710581050D
:1025B000910541F06F3FBCEF7B07BFE08B079105B2
:1025C00009F051C0808181608083D8018C92FF2402
:1025D000F394BFEFCB1ADB0A0F5F1F4FE4E3AE1695
:1025E000E3E0BE06B1F6CE0105960E947D1260932F
:1025F000A0027093A1028093A2029093A302892D5E
:102600009E2D0E947D1260939C0270939D02809388
:102610009E0290939F028091980290919902A091BE
:102620009A02B0919B02FF2029F180618093980269
:1026300090939902A0939A02B0939B0281E08F2518
:1026400028960FB6F894DEBF0FBECDBFDF91CF91B5
:102650001F910F91FF90EF90DF90CF90BF90AF90C0
:102660009F908F90089520812E7F20836C73D801D6
:102670006C93AFCF8F7EDACF87E00E944E054091FA
:1026800098025091990260919A0270919B02892B55
:1026900029F14260409398025093990260939A0204
:1026A00070939B0285E40E944E05409198025091E0
:1026B000990260919A0270919B02892B89F444607F
:1026C000409398025093990260939A0270939B02F0
:1026D0008091980282FF06C00C9401124D7FDACFE0
:1026E0004B7FEECF08958AE30E944E05892B11F4AB
:1026F00080E008958BE30E944E05892BC9F3109268
:10270000F5041092F4041092A5041092A4040E94FF
:102710002D088CE698E09093FB038093FA038DE6F6
:1027200098E09093FF038093FE0381E008955F9209
:102730006F927F928F929F92AF92BF92CF92DF92D1
:10274000EF92FF920F931F93CF93DF9380917004CA
:102750008111F1C00CE213E084E2E82E83E0F82E50
:102760009FE1C92ED12C77247394512C2DE1A22EF8
:10277000B12C3DE0832E912C66246394D801CD9139
:10278000DD918D01ECA5FDA5309709F46DC0138E88
:10279000128E118E108E178A168AD58EC48E84855D
:1027A00096EF980F943048F02EEC280F243028F044
:1027B00022EC280F283008F050C0768A578AB18E54
:1027C000A08E938E828E943050F02EEC280F243001
:1027D00030F022EC280FB0E0A0E0283010F4A8E69A
:1027E000B0E02C91943028F032EC380F383008F4F7
:1027F000B2C031E0232B943048F09EEC980F943017
:1028000028F08E53B0E0A0E0883010F4A8E6B0E0E5
:102810002C93848596EF980F943008F49EC02EEC8C
:10282000280F243008F499C022EC280F283008F42F
:1028300097C030E020E0348B238B943008F093C0B5
:102840008650990BB72D01C0BB0F8A95EAF78B2FE5
:10285000858B848D958D0197F1F7CF010E94BE0481
:102860008CA59DA50E94A8048EA59FA5009739F070
:1028700061E00E94770561E08EA50E94A505888D24
:102880008064888F282F898D382F337050E040E086
:10289000E881F9810190F081E02D60E0CE01199589
:1028A000888D8068888F282F898D382F337050E06D
:1028B00040E0E881F9810190F081E02D60E0CE01F7
:1028C0001995E881F9810288F389E02D65E0CE0150
:1028D0001995888D8B7F888F282F898D382F33709D
:1028E00050E040E0E881F9810190F081E02D60E066
:1028F000CE01199588A5846088A72EA13FA148A57F
:1029000059A5E881F9810190F081E02D60E7CE01C1
:10291000199563E0CE010E946411D701ED91FD91FC
:102920007D011086618666A6B3E004331B0709F0BB
:1029300025CF60927004DF91CF911F910F91FF908E
:10294000EF90DF90CF90BF90AF909F908F907F904F
:102950006F905F90089534E04DCF2BE630E06BCF61
:102960002DE630E068CF823389F0833389F08433F9
:1029700089F092EC980F983078F48E53990B272DAC
:1029800001C0220F8A95EAF7822F62CF88E060CFDC
:1029900084E05ECF82E05CCF81E05ACF8F929F923D
:1029A000AF92BF92CF92DF92EF92FF9284E40E94A7
:1029B000E105BC01990F880B990B0E94733420E04C
:1029C00030E047E152E40E9492364B015C0120E086
:1029D00030E040E951E40E943A37C0909802D0902C
:1029E0009902E0909A02F0909B021816ECF420E015
:1029F00030E040ED51E4C501B4010E946C3487FF22
:102A000013C0E894C0F8C0929802D0929902E09264
:102A10009A02F0929B02FF90EF90DF90CF90BF90D0
:102A2000AF909F908F9008956894C0F8ECCFFC0110
:102A300001900020E9F73197AF01481B590BBC0109
:102A400086E195E00C947F06CF93DF930E949E076A
:102A5000EC0180E993E00E9417158C0F9D1FDF9118
:102A6000CF910895833789F044F4823761F083EE83
:102A700093E00E9424158FEF0895843741F08A3740
:102A8000B1F781E0089582E0089583E0089580E041
:102A900008958F929F92AF92BF920F931F93CF93FF
:102AA000DF93CDB7DEB7A1970FB6F894DEBF0FBEA8
:102AB000CDBF19A2423008F44AE08E010F5D1F4FCE
:102AC000842E912CB12CA12CA50194010E94A63535
:102AD000E62FB901CA01EA30F4F4E05DD801EE93C3
:102AE0008D01232B242B252B79F790E080E0109784
:102AF00019F0CD010E941715A1960FB6F894DEBF0C
:102B00000FBECDBFDF91CF911F910F91BF90AF90BE
:102B10009F908F900895E95CE1CFCF92DF92EF9282
:102B2000FF92CF93DF936B017C016DE286E195E02C
:102B30000E945107EC0166277727CB016C197D09AC
:102B40008E099F094AE00E9449158C0F9D1FDF9155
:102B5000CF91FF90EF90DF90CF9008954F925F92CA
:102B60006F927F928F929F92AF92BF92FF920F933C
:102B70001F93CF93DF93082FF92E162F0E94FC0589
:102B80004B015C018091EE04811167C081E080936C
:102B9000EE048093ED049FEF9093EC041092EB040D
:102BA00091E0910F9093EA048093E9048091E90405
:102BB00088648093E9048091E804813009F09BC027
:102BC0001092E8040E94FC054B015C018091E9042D
:102BD0008093BB008091F0049091F104A091F204E5
:102BE000B091F304892B8A2B8B2BA1F00E94FC055A
:102BF0004090F0045090F1046090F2047090F3045F
:102C0000681979098A099B094616570668067906E4
:102C100008F444C08091BC0083FDD8CF85EC80933C
:102C2000BC000E94FC054B015C018091EE048130E8
:102C300009F463C082E0810F9091EB04981710F4BF
:102C40008091EB04A8ECB4E0E6EFF4E090E0981794
:102C500051F12D9121939F5FFACF8091F0049091D3
:102C6000F104A091F204B091F304892B8A2B8B2BF1
:102C700009F488CF0E94FC054090F0045090F104C4
:102C80006090F2047090F304681979098A099B092D
:102C9000461657066806790608F074CF8091EF044F
:102CA0000E944B0880E01092F5048093F40483EBBB
:102CB00095E00E947E08B02EC02FDF2D61E070E00D
:102CC00080E090E00E94210683EB95E00E947E0860
:102CD00089938C2F8B19811788F3DF91CF911F91E6
:102CE0000F91FF90BF90AF909F908F907F906F90CB
:102CF0005F904F90089585EE92CF8091F00490916F
:102D0000F104A091F204B091F304892B8A2B8B2B50
:102D100009F48BCF0E94FC054090F0045090F10420
:102D20006090F2047090F304681979098A099B098C
:102D3000461657066806790608F077CFAFCFCF93CF
:102D4000DF9397FF0CC00E948D15EC0180E993E0A2
:102D50000E9417158C0F9D1FDF91CF9108954AE0B7
:102D60000E944915F2CFCF93DF9384ED93E00E9448
:102D70009E07C0E08091C003C817B0F4EC2FF0E0CC
:102D8000E054FC4FD08182E993E0D03110F483E924
:102D900093E00E9417156D2F70E090E080E040E115
:102DA0000E944915CF5FE6CF6AE086E195E0DF91AA
:102DB000CF910C9451070F931F93CF93DF93C42FA0
:102DC00004E0040F0093C0038093C103962FA2EC8C
:102DD000B3E0FB018E2F891B8C1718F481918D9322
:102DE000F9CFD0E08FEF9FEF0250110B2D2F30E085
:102DF0002017310744F420543C4FF90160810E94B0
:102E00005712DF5FF3CFEC2FF0E0E054FC4F9283DA
:102E10008383DF91CF911F910F910C94B3161F9371
:102E2000CF93DF931F92CDB7DEB7182F198290E0B2
:102E30008981833008F5E82FF0E0EE0FFF1FE4549E
:102E4000FD4F0190F081E02D4081518162817381BD
:102E5000452B462B472B61F0823011F4112341F0B2
:102E600041E0BE016F5F7F4F8EEE0E94DB1691E066
:102E700089818F5F8983DCCF61E0911101C060E0BF
:102E80008AE00E9477050F90DF91CF911F910895FE
:102E9000CF93DF931F92CDB7DEB7898341E0BE01A8
:102EA0006F5F7F4F88EF0E94DB160F90DF91CF910D
:102EB0000895CF93DF93D82FC62F0E949B12609165
:102EC00098027091990280919A0290919B026115EB
:102ED00071058105910501F560919C0270919D023B
:102EE00080919E0290919F02611571058105910567
:102EF00049F56091A0027091A1028091A202909187
:102F0000A3026115710581059105F1F480917604A4
:102F10008530E1F089EE12C0C0E04AE00E94491518
:102F200080E993E00E94171585E993E00E94171548
:102F300080E993E00E94171581EE8C0F0E944817DC
:102F400080E00DC0C1E0E9CFC2E0E7CF80916E0420
:102F5000811108C0D0936E04C0936D0481E0DF91AD
:102F6000CF91089584EEEACF4F925F926F927F9255
:102F7000AF92BF92CF92DF92EF92FF920F931F9387
:102F8000CF93DF9300D000D0CDB7DEB7182F5B0111
:102F9000CC24C394C80E62E070E080E090E00E9410
:102FA000210681E08093A70484E28093A604109216
:102FB000A5041092A40460E083EB95E00E94C5088C
:102FC00060E083EB95E00E94C5086FEF83EB95E02E
:102FD0000E94C5086C2D83EB95E00E94C508612F07
:102FE000609583EB95E00E94C50864ED83EB95E066
:102FF0000E94C50800E013ED2C2D2150330B690110
:10300000802F90E08C159D0574F4FC01E855FB4F72
:103010007F01608183EB95E00E94C508F701808104
:10302000180F0F5FEDCF612F609583EB95E00E9445
:10303000C50860E083EB95E00E94C5081091A404E8
:10304000113208F091C00E94FC056B017C01809157
:10305000EE04811164C082E08093EE0481E08093ED
:10306000ED048FEF8093EC041092EB041093EA04CC
:10307000E4E8F4E0A8ECB4E080E01813A8C01092F3
:10308000E9048091E90488648093E9048091E8046C
:10309000813009F0A0C01092E8040E94FC056B0189
:1030A0007C018091E9048093BB008091F0049091B1
:1030B000F104A091F204B091F304892B8A2B8B2B9D
:1030C00099F00E94FC050091F0041091F104209108
:1030D000F2043091F3046C197D098E099F090617DB
:1030E000170728073907E0F18091BC0083FDD9CF8D
:1030F00085EC8093BC000E94FC056B017C018091F3
:10310000EE04823009F469C08091EC048F3F61F1D4
:103110008091EC04803241F18091EC0425C08091D3
:10312000F0049091F104A091F204B091F304892B82
:103130008A2B8B2B09F48BCF0E94FC054090F00466
:103140005090F1046090F2047090F3046C197D09C2
:103150008E099F09461657066806790608F077CF4C
:103160008091EF040E944B081092A5041092A404D1
:103170001092A704C5010E945306282F882389F0C6
:1031800066E0CE0101960E94AE1546E050E064EA8A
:1031900072E0CE0101960E94A43721E0892B09F04C
:1031A00020E0822F26960FB6F894DEBF0FBECDBF6B
:1031B000DF91CF911F910F91FF90EF90DF90CF9013
:1031C000BF90AF907F906F905F904F9008959191D6
:1031D0009D938F5F52CF85EE8CCF8091F0049091BC
:1031E000F104A091F204B091F304892B8A2B8B2B6C
:1031F00009F485CF0E94FC050091F0041091F104C0
:103200002091F2043091F3046C197D098E099F0915
:10321000061717072807390708F071CFA1CFEF92DB
:10322000FF920F931F93CF93DF938C017B01EA01F1
:103230008AE48093A80481E08093A9041092AA04F0
:10324000BA0183E00E94B417882321F1CE010E94C5
:103250005306C82F8823F1F064E188EA94E00E94C5
:10326000AE158091AF048130A9F48091B404F701C8
:10327000808380E09091B404891768F4282F30E0AF
:10328000F901E855FB4F9585200F311FF901908317
:103290008F5FF0CFC0E08C2FDF91CF911F910F9106
:1032A000FF90EF900895CF92DF92EF92FF920F93ED
:1032B0001F93CF93DF9300D000D01F921F92CDB702
:1032C000DEB70E9473060091BC031091BD032091EC
:1032D000BE033091BF036B017C01C01AD10AE20A20
:1032E000F30A97018601093B1B4021053105C8F10E
:1032F0006093BC037093BD038093BE039093BF03A0
:103300008E010F5F1F4F87E0F80111928A95E9F750
:1033100042E350E0BE01685F7F4FC8010E940F1971
:10332000882371F1C8010E947D126B017C0180919C
:10333000B8039091B903A091BA03B091BB03C8162A
:10334000D906EA06FB0669F047E0B80183EA0E9465
:10335000DB16C092B803D092B903E092BA03F092A0
:10336000BB0328960FB6F894DEBF0FBECDBFDF912A
:10337000CF911F910F91FF90EF90DF90CF90089524
:1033800042E350E0BE01685F7F4FC8010E940F1901
:103390008111E7CF8091B8039091B903A091BA034E
:1033A000B091BB03892B8A2B8B2BD9F21092B803D7
:1033B0001092B9031092BA031092BB03D2CFCF93ED
:1033C000DF9361E083E00E94770582E08093A804A8
:1033D00064E670E081E00E94B417C82F811105C037
:1033E000C0E08C2FDF91CF9108956CE088EA94E0E3
:1033F0000E94AE1546E050E065E372E088EA94E092
:103400000E94A437892B61F78091AF049091B0049A
:10341000982789279827B0E0A0E0BA2FA92F982FE6
:1034200088272091B104822BBA2FA92F982F8827A3
:103430002091B204822B892B8A2B8B2B89F294E169
:103440009093A80481E08093A9049093AA048093A8
:10345000AB0464E670E084E00E94B417D82F8823A0
:1034600009F4BFCF68E088EA94E00E94AE15CD2F42
:10347000B8CF0E949F3785ED8093BC008091F00407
:103480009091F104A091F204B091F3040796A11D6C
:10349000B11D23E0B695A795979587952A95D1F705
:1034A0002091BC0024FD03C01092EE0408954091C9
:1034B000F0045091F1046091F2047091F304452BF3
:1034C000462B472B69F30097A105B10541F025E391
:1034D0002A95F1F700000197A109B109E1CF809188
:1034E000EF040C944B084F925F926F927F928F92F1
:1034F0009F92AF92BF92CF92DF92EF92FF92CF93C3
:10350000DF93EC016A017B0120E030E0A901CB01EF
:10351000B6010E946C3487FF04C0F7FAF094F7F804
:10352000F0948C8C9D8CAE8CBF8CA7019601C5014C
:10353000B4010E946C34882309F449C06CA97DA9A8
:103540008EA99FA90E9473342B013C01A70196010B
:10355000C501B4010E9492369B01AC01C301B201C6
:103560000E94D2340E9404376CAB7DAB8EAB9FAB14
:10357000A701960160E070E080E090E40E9492363E
:103580000E94453726E53EE04DE25FE30E94D234DB
:1035900020E034E244E759E40E94D23468AF79AFC6
:1035A0008AAF9BAFCC8EDD8EEE8EFF8ECE01DF918B
:1035B000CF91FF90EF90DF90CF90BF90AF909F9012
:1035C0008F907F906F905F904F900C94180BDF91CD
:1035D000CF91FF90EF90DF90CF90BF90AF909F90F2
:1035E0008F907F906F905F904F900895CF92DF9271
:1035F000EF92FF92CF93DF93EC016A017B0120E011
:1036000030E0A901CB01B6010E946C34882359F047
:10361000B701A601CE01DF91CF91FF90EF90DF902F
:10362000CF900C94731ADF91CF91FF90EF90DF90C1
:10363000CF9008954F925F926F927F929F92AF9238
:10364000BF92CF92DF92EF92FF920F931F93CF938F
:10365000DF9300D01F92CDB7DEB700919C0210918E
:103660009D0220919E0230919F02012B022B032B81
:1036700009F09AC1962EE82E6091A0027091A102E5
:103680008091A2029091A302AE014F5F5F4F0E9412
:103690009512F12C5701AA0CBB1CF501EC5DFC4FF7
:1036A00000811181F501E45EFC4FC080D180F601FC
:1036B0006585768590E080E00E947134AB01BC01A5
:1036C000C8010E946A0CF6016385748590E080E071
:1036D0000E947134AB01BC01C8010E94F61AF601C8
:1036E00063897489F501E45DFC4F808191810E94BA
:1036F000F00DF8011486158616861786108A118A31
:10370000128A138A14AA15AA16AA17AA14A215A215
:1037100016A217A2148A158A168A178AF6018481BE
:103720000E944E05F8014484558466847784F6012E
:10373000892B09F045C081859285092E000CAA0BC2
:10374000BB0BAC01BD01440D551D661D771DC801A5
:103750000E94490DC8010E94DC0C8111FBCFF601CB
:1037600084810E944E05892B09F05EC0E1E0F0E003
:10377000EC0FFD1FEE0DFF1D908192619083CE0135
:1037800001960E947D126093A0027093A102809323
:10379000A2029093A30281E00F900F900F900F90E0
:1037A000DF91CF911F910F91FF90EF90DF90CF901D
:1037B000BF90AF909F907F906F905F904F900895D3
:1037C0004581568167817085440D551D661D771DA5
:1037D000C8010E94490DF60184810E944E05892B83
:1037E00009F09CC0C8010E94600DF801148615867E
:1037F00016861786108A118A128A138A14AA15AAA5
:1038000016AA17AA14A215A216A217A2148A158A1C
:10381000168A178AF60141855285052E000C660B23
:10382000770BC8010E94D30DF6016785708990E07F
:1038300080E00E947134AB01BC01C8010E946A0C97
:10384000F60141855285519541955109052E000C8F
:10385000660B770BC8010E94490DF60184810E9416
:103860004E05892B09F083C0C8010E94600DF50147
:10387000EC5EFC4F80819181B0E0A0E0F80184878C
:103880009587A687B787808B918BA28BB38B14AA61
:1038900015AA16AA17AA14A215A216A217A2148A6C
:1038A000158A168A178AE1E0F0E0EC0FFD1FEE0D95
:1038B000FF1D908190719083CE0101960E947D1230
:1038C0006093A0027093A1028093A2029093A3023E
:1038D000F6016281738190E080E00E947134AB0157
:1038E000BC01C8010E946A0CF6016081718190E000
:1038F00080E00E947134AB01BC01C8010E94F61A3D
:10390000F60161897289F501E45DFC4F8081918146
:103910000E94F00D91103DC08FEF3ECFF80140891D
:1039200051896289738984859585A685B7854817ED
:1039300059076A077B07B9F4E1E0F0E0EC0FFD1FDF
:10394000EE0DFF1D908196609083CE0101960E943E
:103950007D126093A0027093A1028093A2029093C3
:10396000A30280E019CFC8010E94DC0C34CFF8011B
:10397000408951896289738984859585A685B78533
:10398000481759076A077B07B9F2C8010E94DC0C87
:1039900064CFF60145895689052E000C660B770B1E
:1039A000C8010E94D30DB8CF83E0F6CEAF92BF928C
:1039B000CF92DF92EF92FF920F931F93CF93DF93FB
:1039C00060E080E30E94770560E08AE20E9477056C
:1039D00060E082E20E94770560E08BE10E9477055B
:1039E000CCE2D3E084E2C82E83E0D82E9CE1E92E1D
:1039F00093E0F92E63E0899199910E946411F60198
:103A0000019111916F01F701A190B1907F01F50132
:103A10006281738190E080E00E947134AB01BC014F
:103A2000C8010E946A0CF5016081718190E080E01C
:103A30000E947134AB01BC01C8010E94F61AF3E088
:103A4000C433DF07B9F6DF91CF911F910F91FF903B
:103A5000EF90DF90CF90BF90AF900895EF92FF92DC
:103A60000F931F93CF93DF9300D01F92CDB7DEB794
:103A700061E087E30E9477050E94D61C8091AA022C
:103A80009091AB02A091AC02B091AD0289839A8370
:103A9000AB83BC830E949B128E010F5F1F4F7E0180
:103AA00085E0E80EF11C61E0F80181918F010E9430
:103AB0001A1B8F3F69F081E00F900F900F900F90CD
:103AC000DF91CF911F910F91FF90EF900C940F1702
:103AD0000E151F0541F740E070E060E088EA0E94A3
:103AE000DB1685E0809376040F900F900F900F9077
:103AF000DF91CF911F910F91FF90EF900895CF929A
:103B0000DF92EF92FF920F931F93CF93DF93EB011E
:103B10007B0124E0E20EF11C8B016C01C61AD70A6E
:103B2000C601800F911F0E949035F80181938F018B
:103B3000EE15FF05A9F7CE01DF91CF911F910F91EF
:103B4000FF90EF90DF90CF9008950F931F93CF9346
:103B5000DF938C01EB010E9490358883C8010196A8
:103B60000E9490358983CE01DF91CF911F910F91F3
:103B70000895AF92BF92CF92DF92EF92FF920F9390
:103B80001F93CF93DF931F921F92CDB7DEB744E50B
:103B9000E42E42E1F42E882321F031E5E32E32E1D8
:103BA000F32E2EEAA22E22E0B22E04E610E0BE0191
:103BB0006F5F7F4FC8010E94A51DF501C190D19094
:103BC0005F0169817A81F60180819181F701199500
:103BD000F60191838083BE016F5F7F4FC80102961B
:103BE0000E94A51D69817A81F60182819381F70186
:103BF0001995F60193838283BE016F5F7F4FC801E1
:103C000004960E94A51D69817A81F60184819581BF
:103C1000F7011995F601958384830A5F1F4F0E38CB
:103C2000110529F693E2C92E94E0D92EBE016F5FEB
:103C30007F4FC8010E94A51D69817A81F6018081AC
:103C40009181F7011995F60191838083BE016F5F21
:103C50007F4FC80102960E94A51D69817A81F601F5
:103C600082819381F7011995F60193838283BE01C6
:103C70006F5F7F4FC80104960E94A51D69817A81FC
:103C8000F60184819581F7011995F6019583848366
:103C90000A5F1F4FF6E0CF0ED11C063D110531F62D
:103CA0008CE8C82E82E0D82EBE016F5F7F4FC8011E
:103CB0000E94A51D69817A81F60180819181F701B9
:103CC0001995F601819391936F010E5F1F4F023E8C
:103CD000110551F70F900F90DF91CF911F910F9128
:103CE000FF90EF90DF90CF90BF90AF9008958F92AC
:103CF0009F92BF92CF92DF92EF92FF920F931F930A
:103D0000CF93DF93CDB7DEB764970FB6F894DEBFDD
:103D10000FBECDBF86E195E00E940F070A970CF415
:103D200060C086E195E00E940F07892B39F086E19B
:103D300095E00E94BB068335910599F786E195E0F1
:103D40000E940F07892B09F044C078EEC72E73E05C
:103D5000D72E86E195E00E940F0708970CF053C01C
:103D600021E0C21AD108A8F70E94CF0697FD05C02E
:103D700089830E94CF0697FF8A8360E08E010F5FE0
:103D80001F4FC8010E9464128093D0038150990B89
:103D90007C01EE0CFF1C86E195E00E940F078E155A
:103DA0009F05BCF5C6010197CD2889F54701EFEFC6
:103DB0008E1A9E0A6801C601801B910B8815990511
:103DC00058F50E94CF0697FD27C0F60181936F0139
:103DD000F2CF86E195E00E94BB068335910509F498
:103DE000B4CF64960FB6F894DEBF0FBECDBFDF919F
:103DF000CF911F910F91FF90EF90DF90CF90BF90E8
:103E00009F908F900895C114D10459F3ADCF6C01E8
:103E1000C2CFCD2831F3CACFF801EE0DFF1D80814E
:103E20008A30D9F5F12C8F2C912CB090D003EB2D4A
:103E3000F0E06F0121E0C21AD1088C149D045CF4FB
:103E40006F2D660FC8010E946412F401E053FC4F0D
:103E50008183F394E8CF912C8FEF9FEF7F0122E0D5
:103E6000E21AF108292D30E02E153F0544F42053C5
:103E70003C4FF90160810E9457129394F3CFD60111
:103E8000A053BC4F3C91F701E053FC4F2081232706
:103E9000322723278217930739F040E070E060E073
:103EA00080E00E94DB169DCF9CEF9B0D8091D1039B
:103EB0008D3A09F468C108F067C0883AD0F4863AB0
:103EC00008F0D3C0823A09F4D7C040F4882309F43B
:103ED000ABC0813A09F4C9C085EE1AC0843A09F42E
:103EE000C4C0853AC9F76FEF0E945917811199C074
:103EF00078CF8A3A09F417C170F4893A69F780914A
:103F00007604833009F4CBC0853009F4C8C089EE4B
:103F10000E94481766CF8B3A09F425C18C3AE1F626
:103F2000933009F0A7C08091D2038F3308F032C1DB
:103F3000E090D303F090D403FE24EF24FE24BF2CA2
:103F400081E00E94B91D0091D20310E0000F111F03
:103F500068012FE3C20ED11CC6010E9490358E1558
:103F600021F06E2DC6010E949835005C1F4FC801DC
:103F70000E9490358B1521F06F2DC8010E94983555
:103F800080E00E94B91D4DC0883B09F426C1B0F500
:103F9000813B09F4A8CF88F48F3A09F410C1803B23
:103FA00009F09ACF0E943C1265E070E080E090E05A
:103FB0000E9421060E94011234C0823B09F402C112
:103FC000863B09F089CF80912104815087FD88E1EB
:103FD000082E000C990BC996B801880F991F880FFD
:103FE000991F0E947F1D69817A818B819C81A80124
:103FF0000E94951244E0B80187EB53CF8C3B09F443
:1040000006C148F48A3B09F4FEC08B3B09F064CF3B
:104010001092750406C0803C09F446C08F3F09F039
:104020005BCF0E947912DDCE0091C0030250110BCC
:10403000F12C8FEF9FEF2F2D30E02017310744F444
:1040400020543C4FF90160810E945712F394F3CF42
:10405000F801E054FC4F9083E091C003F0E0E1549C
:10406000FC4F80830E94B316BCCE6091D203913086
:1040700009F43ACF88EE4CCF0E94791287E0F8011C
:1040800011928A95E9F744E650E0BE016D5E7F4FDC
:10409000C8010E940F1947E0B80183EA02CF0E94CD
:1040A00079120E942E1D9DCE80917604853009F0F4
:1040B0002ECF0E9479128091970690919806A09138
:1040C0009906B0919A0689369B40A105B10544F046
:1040D00048E65BE060E070E08BE896E00E94D30D7C
:1040E00040ED57E060E070E083E096E00E94D30D81
:1040F0000E949B1260E080E00E941A1B8F3F21F01B
:1041000081E00E940F176DCE409186025091870288
:1041100070E060E08BE896E00E94D30D40E070E034
:1041200060E088EABECE80917604833019F0853055
:1041300009F0EDCE0E943C1265E070E080E090E076
:104140000E9421060E94011260E087E30E94770529
:1041500060E089E00E94770560E088E30E947705CF
:10416000109276045ECF80917604873009F4CFCE2A
:104170008F3F09F4CCCE61E088E30E94770583E0AD
:10418000809376044ECF913009F074CFE091D20342
:10419000E33010F087EEBCCEF0E0EE0FFF1FE454EA
:1041A000FD4F0190F081E02D6081718182819381CA
:1041B000A8010E94951244E0B8018EEA72CE0E94D6
:1041C0003C122FCFA80161EE7BE88FE290E00E94C5
:1041D000951244E0B80183EB64CE8091D20390E065
:1041E000880F991FBE016D5E7F4FCF960E94A51D5F
:1041F000FC01908181819B8B8C8B89839A8342E027
:10420000B80189EB4ECE81E0809375040ACF9130DE
:1042100009F030CF8091D203B3CF1F920F920FB627
:104220000F9211240BB60F922F933F938F939F936E
:10423000AF93BF93CF93DF93EF93FF93E09182040B
:10424000F0918304309749F0A685B7859585868DD2
:1042500081FF14C08C918923A1F4FF91EF91DF912C
:10426000CF91BF91AF919F918F913F912F910F90DF
:104270000BBE0F900FBE0F901F9018958C91892345
:1042800061F7A389B4899C918589809589238C9352
:10429000868997890197F1F7208D318DC685D7855D
:1042A00088E0D9011197F1F798818150D1F7809179
:1042B000810490E001968F7399272091800428173C
:1042C00079F09091810480938104828D938D019780
:1042D000F1F7A389B4898C919589892B8C93BDCFF3
:1042E000868D8160868FF1CF1F920F920FB60F924D
:1042F00011242F933F938F939F93AF93BF938091FC
:10430000780490917904A0917A04B0917B04309163
:10431000770423E0230F2D3758F50196A11DB11D19
:10432000209377048093780490937904A0937A047F
:10433000B0937B0480917C0490917D04A0917E04D5
:10434000B0917F040196A11DB11D80937C049093D0
:104350007D04A0937E04B0937F04BF91AF919F91A1
:104360008F913F912F910F900FBE0F901F90189536
:1043700026E8230F0296A11DB11DD2CF1F920F92E6
:104380000FB60F9211240BB60F922F933F934F93BA
:104390005F936F937F938F939F93AF93BF93EF93AD
:1043A000FF938AE797E00E942F07FF91EF91BF915B
:1043B000AF919F918F917F916F915F914F913F91BD
:1043C0002F910F900BBE0F900FBE0F901F9018955E
:1043D0001F920F920FB60F9211240BB60F922F93CC
:1043E0008F939F93EF93FF93E0918A07F0918B0750
:1043F0008081E0919007F091910782FD1DC090812E
:10440000809193078F5F8F7320919407821741F0FB
:10441000E0919307F0E0E658F84F958F809393076B
:10442000FF91EF919F918F912F910F900BBE0F9065
:104430000FBE0F901F9018958081F2CF1F920F92A0
:104440000FB60F9211240BB60F922F933F934F93F9
:104450005F936F937F938F939F93AF93BF93EF93EC
:10446000FF9386E195E00E942F07FF91EF91BF91A6
:10447000AF919F918F917F916F915F914F913F91FC
:104480002F910F900BBE0F900FBE0F901F9018959D
:104490001F920F920FB60F9211240BB60F922F930B
:1044A0008F939F93EF93FF93E0912605F09127055B
:1044B0008081E0912C05F0912D0582FD1DC0908139
:1044C00080912F058F5F8F7320913005821741F007
:1044D000E0912F05F0E0EA5EFA4F958F80932F056B
:1044E000FF91EF919F918F912F910F900BBE0F90A5
:1044F0000FBE0F901F9018958081F2CF1F920F92E0
:104500000FB60F9211240BB60F922F933F934F9338
:104510005F936F937F938F939F93AF93BF93EF932B
:10452000FF938091B900887F803609F44DC008F070
:1045300040C0883209F4A9C028F5803109F49DC033
:10454000C8F4882309F4FBC0883009F496C0FF91B1
:10455000EF91BF91AF919F918F917F916F915F91FB
:104560004F913F912F910F900BBE0F900FBE0F9068
:104570001F901895883109F488C0803241F78093E4
:10458000EC0414C0803409F49DC040F48033B9F3C6
:104590008833E9F68093EC0485ECB0C0803509F4EB
:1045A00085C0883509F496C0883489F60E943B1A84
:1045B000CECF883909F48CC038F5883729F050F40B
:1045C000883611F0803719F683E08093EE0410925C
:1045D000200457C0883809F47BC0803919F080382E
:1045E00009F0B5CF80912004803208F071C0E091CD
:1045F000200481E08E0F809320048091BB00F0E0C6
:10460000E050FC4F80833DC0803B39F0E0F4803ABD
:1046100009F479C0883A09F09ACF84E08093EE04D7
:104620001092FD031092FC03E091FA03F091FB035A
:1046300019958091FC0381110FC081E08093FC03E8
:104640001092DA0309C0803C09F4A6CF883C09F433
:10465000A3CF883B09F07BCFE091FD0381E08E0F73
:104660008093FD03F0E0E652FC4F80818093BB0015
:104670009091FD038091FC0329C08091E90480930F
:10468000BB0085EC8093BC0062CF9091EB048091DD
:10469000EA04981758F5E091EB0481E08E0F8093BF
:1046A000EB04F0E0E853FB4F8081E9CFE091EB04AD
:1046B00081E08E0F8093EB048091BB00F0E0E85323
:1046C000FB4F80839091EB048091EA049817C8F225
:1046D00085E8D8CFE091EB0481E08E0F8093EB0466
:1046E0008091BB00F0E0E853FB4F80838091ED04A4
:1046F00081115CCF81E08093E80484EA8093BC0060
:104700001092EE0424CF85EC8093BC001092EE044E
:1047100080912004803230F4E0912004F0E0E050F9
:10472000FC4F10826091200470E0E091FE03F09154
:10473000FF0380E094E019951092200408CF1092B6
:10474000EC0434CFCF92DF92EF92FF92FC01362F30
:10475000128213828481807F168217829085907FD7
:1047600090874EEA57E461EE7DE341875287638785
:104770007487C12CD12CE12C9FE3F92EC586D686F7
:10478000E786F08AA6E7B3E0B183A083128A118A94
:10479000438B548B658B768B178A918D128E238D6C
:1047A000207F238F158E148E168E178E10A211A2C5
:1047B00015A614A617A616A611AA10AA32AB2AE7A8
:1047C00037E033A722A721E0208F9C7F9160918F53
:1047D0008160848384E1858383E590E0A0E0B0E19B
:1047E00082A393A3A4A3B5A384E290E0ADE0B1ECCF
:1047F00086A397A3A0A7B1A7FF90EF90DF90CF90DB
:104800000895CF93DF93EC0188E393E09983888345
:1048100081E08B831C861D861E861F86188A198A56
:104820001A8A1B8A1C8A1D8A1E8A1F8A80E090E0D1
:10483000A0E8BFE3888F998FAA8FBB8F1C8E1D8E37
:104840001E8E1F8E88A399A3AAA3BBA31CA21DA280
:104850001EA21FA221E030E03DA72CA72FEF2FA71B
:1048600018A619A61AA61BA66C834D8324E02E83D6
:1048700025E02F831EA61CAA1DAA1EAA1FAA18AED9
:1048800019AE1AAE1BAE1CAE1DAE1EAE1FAEFE01A3
:10489000E05CFF4F80839183A283B3831A821886E2
:1048A00019861A861B86CE010E94F70840E050E068
:1048B00060E87FE3CE01DF91CF910C94731ACF9320
:1048C000DF93EAE7F7E01382128288EE93E0A0E03C
:1048D000B0E084839583A683B78322E533E03183F8
:1048E00020834DEC50E0558744874CEC50E05787CF
:1048F000468748EC50E0518B408B49EC50E0538B9D
:10490000428B4AEC50E0558B448B4EEC50E0578B79
:10491000468B118E128E138E148EE6E1F5E0138213
:10492000128284839583A683B7833183208325EC09
:1049300030E03587248724EC30E03787268720EC69
:1049400030E0318B208B21EC30E0338B228B22EC5A
:1049500030E0358B248B26EC30E0378B268B118EA4
:10496000128E138E148EE3EBF5E013821282848391
:104970009583A683B78384E693E09183808384E064
:104980008093500860E00E94A50560E087E198E010
:104990000E94A223A7E1B8E0C6E7D3E01196DC931A
:1049A000CE93EAE4F8E0108211828281807F8283D4
:1049B000D6961C92D697D8961C921E92D79761E0F5
:1049C00081E497E00E94A223A1E4B7E01196DC9372
:1049D000CE93E4E7F7E0108211828281807F8283A8
:1049E000D6961C92D697D8961C921E92D79762E0C4
:1049F00088E097E00E94A223A8E0B7E01196DC933C
:104A0000CE93EBE3F7E0108211828281807F828374
:104A1000D6961C92D697D8961C921E92D79763E092
:104A20008FEC96E00E94A223AFECB6E01196DC93E7
:104A3000CE93E2E0F7E0108211828281807F828350
:104A4000D6961C92D697D8961C921E92D7974FE274
:104A50006EE28BE896E00E9401244CE26DE287E46E
:104A600096E00E94012448E269E283E096E00E9419
:104A700001244DE16CE18FEB95E0DF91CF910C9437
:104A80000124CF93DF93CDB7DEB7C85CD1090FB651
:104A9000F894DEBF0FBECDBF789484B5826084BD2C
:104AA00084B5816084BD85B5826085BD85B5816032
:104AB00085BD80916E00816080936E0010928100B0
:104AC000809181008260809381008091810081606B
:104AD000809381008091800081608093800080912C
:104AE000B10084608093B1008091B00081608093B8
:104AF000B00080919100826080939100809191003C
:104B000081608093910080919000816080939000FB
:104B10008091A10082608093A1008091A1008160BA
:104B20008093A1008091A00081608093A00080917B
:104B30002101826080932101809121018160809315
:104B400021018091200181608093200180917A0071
:104B5000846080937A0080917A00826080937A00EA
:104B600080917A00816080937A0080917A008068D9
:104B700080937A001092C100E0912605F0912705FC
:104B800002E00083E0912205F09123051082E0917C
:104B90002405F091250587E0808310922E05E09191
:104BA0002A05F0912B0516E01083E0912805F0917D
:104BB0002905808180618083E0912805F091290595
:104BC000808188608083E0912805F09129058081AB
:104BD00080688083E0912805F091290580818F7D90
:104BE00080838FE090E0A0E0B0E080931A0590937E
:104BF0001B05A0931C05B0931D050E947912E0913E
:104C00008A07F0918B070083E0918607F091870770
:104C10001082E0918807F091890780E180831092EB
:104C20009207E0918E07F0918F071083E0918C0737
:104C3000F0918D07808180618083E0918C07F091F5
:104C40008D07808188608083E0918C07F0918D07CB
:104C5000808180688083E0918C07F0918D0780814E
:104C60008F7D808361E083E00E94A50561E083E0A1
:104C70000E94770561E089E00E94A50561E087E375
:104C80000E94A50562E087E10E94A50562E08AE333
:104C90000E94A50562E08BE30E94A50561E08AE021
:104CA0000E94A50561E08BE00E94A50562E087E017
:104CB0000E94A50560E085E40E94A5050E943C13C2
:104CC00061E088E30E94A50560E086E30E94A505F7
:104CD00060E084E40E94A50561E088E30E94770516
:104CE00061E080E30E94A50561E08AE20E94A505DB
:104CF00061E082E20E94A50561E08BE10E94A505CA
:104D000061E080E30E94770561E08AE20E94770516
:104D100061E082E20E94770561E08BE10E94770505
:104D200062E081E20E94A50562E080E20E94A505A2
:104D300062E08FE10E94A50562E08EE10E94A50578
:104D400060E083E00E9477050E947313409198020F
:104D50005091990260919A0270919B0281116FC1EA
:104D60004062409398025093990260939A02709324
:104D70009B0294EEE92EF12C812C912C540110E031
:104D8000BE016F5F7F4FC7010E947F1D89819A819D
:104D9000AB81BC8188159905AA05BB0508F051C1F6
:104DA0001093210480E00E94B91D62EF72E0E3E2FB
:104DB000F4E02AED32E082EC92E0DB014D915D916E
:104DC000BD0151834083D9014D915D919D01538374
:104DD0004283DC014D915D91CD015583448336962C
:104DE000B3E06A307B0749F70E94CE140E943C135F
:104DF0000E949B1281110E9497131CE2E12E13E086
:104E0000F12E0CE2602E03E0702E8CE1A82E83E0E0
:104E1000B82E04E213E0F801819091908F01D50142
:104E2000CD90DD905D01F6016081718190E080E0C0
:104E30000E947134AB01BC01C4010E94F61AD60174
:104E400012966D917C9190E080E00E947134AB01EC
:104E5000BC01C4010E946A0C80917004882341F057
:104E6000F60161897289D7018D919C910E94F00DA4
:104E7000B2E0EB0EF11C6016710669F60E94DF19B4
:104E8000409198025091990260919A0270919B0210
:104E90008111E3C04064409398025093990260935B
:104EA0009A0270939B0286E30E94E105409198026A
:104EB0005091990260919A0270919B0281329340C5
:104EC0000CF0CDC0486040939802509399026093D3
:104ED0009A0270939B0280E00E940F1780919802C3
:104EE00090919902A0919A02B0919B02892B8A2BF2
:104EF0008B2B09F4B6C08FEF8093760410924F0687
:104F000081E080935006809375061092930610926C
:104F100094068093B906B5E0FB2E87E10E944E050A
:104F2000892B09F005C26AE070E080E090E00E9401
:104F30002106FA94F110F1CF85E497E00E94241540
:104F40008BE197E00E94241587EF96E00E942415DC
:104F500084EC96E00E94241583E896E00E942415D4
:104F600080E596E00E9424158EE196E00E942415CB
:104F70008FEE95E00E9424158CEB95E00E9424159D
:104F800089E895E00E94241586E595E00E942415A5
:104F900080E295E00E94241584E095E00E942415AB
:104FA0000E94D61CA4E22A2EA3E03A2E86E195E0C8
:104FB0000E940F07892B09F457C2CE0101966C019C
:104FC000F12CE12C0E94CF0697FD0DC08A3091058F
:104FD00051F0D6018D936D01BFEFEB1AFB0AE8EC9F
:104FE000EE16F10479F7E1E0F0E0EC0FFD1FEE0DB5
:104FF000FF1D10828AEF94E00E949E07CE01019669
:105000000E94171580E993E00E94171589818D365B
:1050100009F4C0C00CF052C0853609F485C1D4F53E
:10502000833409F412C2813609F4DCC18BE194E0C7
:105030000E94241586E195E00E94B907B7CF4F7D05
:1050400090CE1F5F24E0E20EF11C4C015D0119318E
:1050500009F096CE10922104A5CE4F7B1CCF477F3E
:1050600032CF61E08BE00E94770561E089E00E9429
:10507000770564E170E080E090E00E94210660E046
:1050800089E00E94770560E088E30E94770510922E
:10509000760434CF883609F440C18B3639F682E77E
:1050A00094E00E9424150E943C1262E370E080E0CC
:1050B00090E00E9421060E94011278CF833709F404
:1050C0006EC10CF05EC0803709F48AC0823709F0E7
:1050D000ADCF8AEB94E00E942415F4E2AF2EF3E00A
:1050E000BF2ED501ED91FD915D01648575858685A5
:1050F00097850E949F16A016B10699F78AEA94E058
:105100000E942415E4E28E2EE3E09E2ED401ED9160
:10511000FD914D01C08CD18CE28CF38CA7019601DE
:10512000C701B6010E948537882309F460C08CEA64
:1051300093E00E94171580E993E00E9417158A14E6
:105140009B0421F78AE994E00E9424157CE1E72E74
:1051500073E0F72ED701ED91FD917D0184810E94CE
:105160004E05BC01990F880B990B97FFD2C00E9486
:105170008D1580E993E00E9417152E143F0451F716
:1051800015CF883709F451C18A3709F457C18437DC
:1051900009F04CCF8A810E943215B82ECE010396B9
:1051A0000E9430346B017C0189818D3609F4DDC0A9
:1051B000843709F0FBCE89E094E00E949E07C70186
:1051C000B6010E949F16EB2DF0E0EE0FFF1FEC5D85
:1051D000FC4FB701A601808191810E94490DE6CE66
:1051E00086EE94E00E9424150E943C12DFCE260138
:1051F0003701E89477F82FEF3FEF4FE75FE7C30100
:10520000B2010E94853781110DC02FEF3FEF4FE7AC
:105210005FE7C301B2010E946C3418161CF480EBE6
:1052200093E087CF2FEF3FEF4FE75FE4C701B60171
:105230000E943A3718161CF484EB93E07ACF2FEFD4
:105240003FEF4FE75FECC701B6010E946C3487FD6A
:10525000F3CF20E030E0A901C701B6010E946C3411
:1052600087FF09C06DE286E195E00E945107F7FAD9
:10527000F094F7F8F0942AE037ED43EA5BE3C701D6
:10528000B6010E9426362B013C010E940B376B01B0
:105290007C010E9471349B01AC01C301B2010E94E8
:1052A00025362B013C014AE0C701B6010E94491591
:1052B0006EE286E195E00E94510720E030E040E296
:1052C00051E4C301B2010E94D2342B013C010E947F
:1052D0000B376B01F12CE12C4AE0C701B6010E94AB
:1052E0004915C701B6010E9471349B01AC01C3018D
:1052F000B2010E94253620E030E040E251E40E94F5
:10530000D2340E940B3790E080E04AE00E944915B9
:1053100012CF4AE00E9449152CCF87E894E00E9402
:1053200024150E942E1D42CE8FE594E00E94241584
:1053300096E0F92E27E0C22E36E0D32E43E0942EDD
:105340005FE0852E60E2762E80917604853009F448
:10535000CEC008F095C0882309F4BFC0833009F49B
:10536000BCC08FEF80937604BFC087EF93E00E94AC
:105370009E07C701B6010E949F16EB2DF0E0EE0FCD
:10538000FF1FEC5DFC4F80819181FC0144855585B8
:10539000668577854C0D5D1D6E1D7F1D1ECFCE0170
:1053A00003960E9430344B015C0188E494E00E9433
:1053B0009E07C501B4010E949F168A810E94321582
:1053C000F82EC501B4010E947334AB01BC01EF2D6E
:1053D000F0E0EE0FFF1FEC5DFC4F808191810E9499
:1053E0006A0CE4CDCE0103960E9430344B015C017F
:1053F0008AE294E00E949E07C501B4010E949F16B4
:105400008A810E943215F82EC501B4010E947334BE
:10541000AB01BC01EF2DF0E0EE0FFF1FEC5DFC4F88
:10542000808191810E94F61AC1CD609180027091B5
:10543000810287E198E00E94F00DB8CD6091800272
:1054400070918102660F771FF4CFF12CE12C60E0A0
:10545000C7010E949835FFEFEF1AFF0A24EFE2160A
:1054600021E0F206A1F7A2CD98E8E92E93E1F92E0A
:1054700081E00E94A71141E0E41AF108C9F796CD36
:10548000873011F40C946B338F3F09F06ACF809111
:10549000980290919902A0919A02B0919B0280FD8E
:1054A00002C00C949E33109270040E94CE1480911E
:1054B000980280FD0E949713809198029091990222
:1054C000A0919A02B0919B02892B8A2B8B2B11F011
:1054D0000C942C341092760407C00E94771E8091A1
:1054E000750481110E9453190E94D9072DCF0E9483
:1054F000771E8091750481110E945319E8EEAE2E3B
:10550000E3E0BE2EF8E12F2EA6E16A2EB4E15B2E79
:105510001BE0412E09E0302E85E0E82E80916E04DC
:10552000853A09F400C4F0F4813A49F1843A09F467
:10553000A2C2811120C0809122048F5F8093220437
:1055400080916E04882309F457C080936C041092F4
:105550006E0410926B0440E070E060E088EA0E9404
:10556000DB164AC0873A09F43FC608F497C4813B6A
:1055700011F40C9464338AEE0E9448173DC01091D8
:105580006D04E0916B04EC3208F072C2F0E0882701
:10559000E353F54D8F4F0C94E735F92A022B242B5A
:1055A0002F2B322B3D2B592B382D382D382D382DC4
:1055B000382D382D382D382D622B6E2B7A2B8D2BD4
:1055C000992BAB2BB72BC72BD32B022C0E2C4B2C90
:1055D000382D382D382D382D552C702C7C2C8C2CBA
:1055E000982CC62CD22CE02CEC2CFC2C082D2C2D2D
:1055F0004B2F81E080936B0441E0A41AB10809F0BD
:105600008DCF72CF8091410490914204B0E0A0E030
:1056100040919706509198066091990670919A066C
:1056200084179507A607B70764F448EB5BE060E0D2
:1056300070E083E096E00E94490D82E080936B0465
:10564000DBCFE0926B04D8CF81E00E94A7118823C2
:1056500099F280916B048F5F80936B04CDCFE092C1
:105660006B04CACF81E00E94A711882329F28091A0
:105670006B048F5F80936B04BFCFF19EF001112408
:10568000ED5DFB4F408151814351514070E060E03E
:105690008BE896E00E94490D409196025091970246
:1056A00070E060E08FEB95E00E94490DD0926B04B2
:1056B000A3CF81E00E94A711882309F49DCF809297
:1056C0006B049ACF4CEA5DE060E070E083E096E026
:1056D0000E94490D80E180936B048ECF81E00E948F
:1056E000A711882309F488CF80916B048F5F809382
:1056F0006B0482CFF19EF0011124ED5DFB4F4281DE
:1057000053814659510970E060E087E496E00E94B9
:10571000490D82E180936B046FCF81E00E94A71155
:10572000882309F469CF80916B048F5F80936B04A9
:1057300063CFF19EF0011124ED5DFB4F4481558153
:10574000052E000C660B770B83E096E00E94490D56
:1057500050926B0451CF81E00E94A711882309F475
:105760004BCF80916B048F5F80936B0445CFF19E8C
:10577000F0011124ED5DFB4F4281538170E060E048
:1057800087E496E00E94490D60926B0435CF81E07A
:105790000E94A711882309F42FCF80916B048F5F9B
:1057A00080936B0429CF609180027091810290E018
:1057B00080E00E94713420E030E040E650E40E9436
:1057C000D2340E940B3787E198E00E94F00D40E050
:1057D00050E86BE375E48BE896E00E946A0CF19E5A
:1057E000F0011124ED5DFB4F4081518170E060E0DC
:1057F0008BE896E00E94490D80916B048F5F809347
:105800006B04FACE81E00E94A711882309F4F4CE3C
:1058100080916B048F5F80936B04EECE6091800269
:105820007091810287E198E00E94F00D6091710211
:105830007091720290E080E00E947134AB01BC0173
:105840008BE896E00E946A0C111112C04091250469
:10585000509126044053584F70E060E087E496E092
:105860000E94490D80916B048F5F80936B04C4CEBE
:10587000163038F040918802509189024E58594FA5
:10588000EBCFF19EF0011124ED5DFB4F428153817E
:10589000405C504EE1CF81E00E94A711882309F4BB
:1058A000ABCE8FE180936B04A7CE409186025091DE
:1058B00087024E5C5F4F70E060E08BE896E00E94EC
:1058C000490D40918A0250918B02052E000C660B07
:1058D000770B83E096E00E94490D70926B048CCEAA
:1058E00081E00E94A711882309F486CE80916B0481
:1058F0008F5F80936B0480CE409188025091890223
:105900004C575C4F70E060E087E496E00E94490DE0
:1059100082E280936B0470CE81E00E94A7118823FD
:1059200009F46ACE80916B048F5F80936B0464CE20
:10593000609180027091810290E080E00E94713459
:1059400020E030E040E650E40E94D2340E940B3761
:1059500087E198E00E94F00D40E050E86BE375E4C9
:105960008BE896E00E946A0C409186025091870273
:105970004A50510970E060E08BE896E00E94490DC2
:1059800080916B048F5F80936B0436CE81E00E9420
:10599000A711882309F430CE80916B048F5F809328
:1059A0006B042ACE409188025091890270E060E039
:1059B00087E496E00E94490D86E280936B041CCE3A
:1059C00081E00E94A711882309F416CE80916B0410
:1059D0008F5F80936B0410CE4091860250918702B6
:1059E0004351514070E060E08BE896E00E94490D21
:1059F00088E280936B0400CE81E00E94A711882387
:105A000009F4FACD80916B048F5F80936B04F4CD21
:105A1000609180027091810287E198E00E94F00D10
:105A2000609171027091720290E080E00E94713486
:105A3000AB01BC018BE896E00E946A0C4CEA5DE089
:105A400060E070E083E096E00E94490D80916B0475
:105A50008F5F80936B04D0CD81E00E94A7118823D3
:105A600009F4CACD80916B048F5F80936B04C4CD21
:105A700010926B04C1CD00916D04E0916B04E5318F
:105A8000B8F7F0E08827E85BF24D8F4F0C94E735CC
:105A90005D2D702D7C2D7F2D8B2D962DA22DB62D5D
:105AA000C22DE12DED2D052E112E302E3C2E552E22
:105AB000612E6D2E792E872E4B2F80916C04863AA5
:105AC00061F048EB5BE060E070E083E096E00E940C
:105AD000490D81E080936B048FCDD0926B048CCD07
