:100000000C9448040C9479040C9479040C947904AD
:100010000C9479040C9479040C9479040C9479046C
:100020000C9479040C9427200C9427200C942720FE
:100030000C9479040C9479040C9479040C9479044C
:100040000C9479040C9479040C9479040C9479043C
:100050000C9479040C9479040C9479040C948E20FB
:100060000C9479040C9462210C9438210C9479043A
:100070000C9479040C9479040C9479040C9479040C
:100080000C9479040C9479040C9479040C947904FC
:100090000C9402210C94D8200C9479040C9498218F
:1000A0000C9479040C9479040C9479040C947904DC
:1000B0000C9479040C9479040C9479040C947904CC
:1000C0000C9479040C9479040C9479040C947904BC
:1000D0000C9479040C9479040C9479040C947904AC
:1000E0000C9479040C94122A0C94752B0C948A119C
:1000F0000C94532D0C947A090C94DB2B0C947B2CD0
:100100000C946D310C94C72C0C94F8310C940B05A5
:100110000C94E32D0C9446050C94AB2D0C942E05F9
:100120000C94C5310C946D080C9440050C94B907DF
:100130000C94A10E0C940B2E0C94DF2C0C949411A7
:100140000C94C02A0C942F2D0C942B130C94692B17
:100150000C94082E0C94D1300C94020B0C946F0864
:100160000C94BF2B0C94EB2C0C94852F0C942E2C00
:100170000C94B02A0C94502E0C94A3300C94A42A06
:100180000C94C2100C943B2D0C9481110C947C1196
:100190000C948F310C940F070C944A050C94310F7A
:1001A0000C943C050C942A050C9491080C94CE0AEE
:1001B0000C946F300C94FC300C94090B0C941E2A98
:1001C0000C94282B0C94592B0C94662E0C94F40848
:1001D0000C9474090C94582C0C9418300C94003026
:1001E0000C941D310C9449090C94270A0C94900A24
:1001F0000C94ED0A0C94A22E0C940F050C94412C37
:100200000C94162D0C94992B0C94B7310C94B32BA1
:100210000C94472D0C94612D0C9460300C94170BAA
:100220000C94F12A0C94480A0C94C5300C94543068
:100230000C9405050C946E090C94672A0C94AC067A
:100240000C9472090C94922D0C94CC2A0C940A2DC7
:100250000C94C5080C944D2C0C946E2F0C94E21049
:100260000C94BD2E0C9470090C946E080C94813182
:100270000C949E2D0C947A0A0C9432050C94010770
:100280000C94912F0C94822D0C94522A0C94292FAB
:100290000C943B300C94862A0C9442320C945F31BF
:1002A0000C943E310C94352F0C94922A0C946F2CA4
:1002B0000C942A2A0C948F2C0C9424050C94EC2971
:1002C0000C94622F0C94A52B0C947F060C941B119C
:1002D0000C9438050C941A050C9413050C940632F2
:1002E0000C944D2B0C94BE2F0C94732A0C94172E47
:1002F0000C94BB2C0C94E5310C942B310C94F0290C
:100300000C94D2090C94EF2D0C94FB0A0C944C31F4
:100310000C94CA100C947E080C943D110C942B3252
:100320000C945B2A0C947C090C9408310C94FD2AE3
:100330000C94CF2B0C94CA2F0C94E50A0C94200536
:100340000C94642C0C9445050C94FF2B0C942B09F5
:100350000C948A300C94100B0C9476090C94AE2EED
:100360000C9498080C94412F0C94952E0C94012F0A
:100370000C94F40A0C949B2C0C9417050C94322BBF
:100380000C9478090C94D7310C944D2F0C944B326B
:100390000C946C080C94A62F0C94F3090C94F52E75
:1003A0000C94B22F0C9477110C94362A0C94F70805
:1003B0000C9479230C94BB060C9496300C942E1359
:1003C0000C9451070C942F300C94F8100C947B3043
:1003D0000C9424305353005353303446463141304B
:1003E000430A005B534341505D20204178697320EC
:1003F000556E6B6F776E005B534341505D2020520A
:10040000656C206D6F766520005B534341505D2025
:1004100020416273206D6F766520005B534341502D
:100420005D2020556E6B6F776E005B534341505DCE
:100430002020536574206D617820616363656C656D
:10044000726174696F6E20005B534341505D2020E0
:10045000536574206D617820737065656420005B5E
:10046000534341505D202045786974696E672E2E94
:100470002E005B534341505D202053687574646FB8
:10048000776E20616C6C005B534341505D202048C7
:100490006F6D696E6720616C6C000A5B534341505D
:1004A0005D204C696D6974733A000A5B5343415097
:1004B0005D202053706565643A005B534341505D95
:1004C00020203C5468207C205A207C2052207C2014
:1004D00054733E0A5B534341505D2020506F736953
:1004E00074696F6E3A005B534341505D2020537432
:1004F0006F7070656420616C6C000A5B6563686F87
:100500005D2020005B534341505D2020436F6E749B
:10051000726F6C20656E61626C65642E2E2E0A000F
:100520007C202020207C202061203C617869734958
:10053000443E203C616363656C65726174696F6EF3
:100540003E202D2D2053657420616363656C6572B8
:100550006174696F6E007C202020207C2020732035
:100560003C6178697349443E203C6D617853706505
:1005700065643E202D2D2D2D2D2D20536574206D6D
:100580006178207370656564007C202020207C20C9
:10059000206D203C6178697349443E203C6D6F7644
:1005A000653E202D2D2D2D2D2D2D2D2D2D205265EF
:1005B0006C6174697665206D6F7665007C20202003
:1005C000207C202074203C6178697349443E203CA3
:1005D000706F736974696F6E3E202D2D2D2D2D2D3A
:1005E000204162736F6C757465206D6F7665007C59
:1005F000202020207C202065202D2D2D2D2D2D2DFF
:100600002D2D2D2D2D2D2D2D2D2D2D2D2D2D2D2D1A
:100610002D2D2D20457869742053434150007C20B6
:100620002020207C20206B202D2D2D2D2D2D2D2DBB
:100630002D2D2D2D2D2D2D2D2D2D2D2D2D2D2D2DEA
:100640002D2D2053687574646F776E20616C6C007B
:100650007C202020207C202068202D2D2D2D2D2D4C
:100660002D2D2D2D2D2D2D2D2D2D2D2D2D2D2D2DBA
:100670002D2D2D2D20486F6D6520616C6C206178CB
:100680006973007C202020207C202072202D2D2DBD
:100690002D2D2D2D2D2D2D2D2D2D2D2D2D2D2D2D8A
:1006A0002D2D2D2D2D2D2D20526561642063757209
:1006B00072656E7420617869732076617269616217
:1006C0006C6573007C202020207C202070202D2D44
:1006D0002D2D2D2D2D2D2D2D2D2D2D2D2D2D2D2D4A
:1006E0002D2D2D2D2D2D2D2D2053746F7020616CEF
:1006F0006C2061786973007C202020207C202028D9
:100700004E6F2073706163657320696E20616E792E
:1007100020636F6D6D616E647329007C2020202042
:100720007C2020506F737369626C6520636F6D6D00
:10073000616E64732061726520617320666F6C6CFA
:100740006F77733A005B534341505D2020536572CD
:1007500069616C20436F6E74726F6C2041786973AD
:1007600020506F736974696F6E696E6700000021B5
:1007700000240027002A002D003000330001010072
:1007800000040107010A0100002200250028002BB7
:10079000002E003100340002010000050108010BA9
:1007A00001000020002300260029002C002F003229
:1007B0000000010000030106010901050505050708
:1007C0000508080808020202020A0A0808040404CC
:1007D00004010101010101010103030303030303F8
:1007E00003040707070C0C0C0C0C0C0C0C02020287
:1007F0000206060606060606060B0B0B0B0B0B0B7A
:100800000B01021020200808102040102040800218
:100810000102010804020101020408102040808046
:1008200040201008040201800402018040201008CA
:1008300004020108040201010204081020408001A2
:100840000204081020408000000A0B02090C0D0E63
:100850000807030401000000000000000000000081
:100860000000000000000000000000000000000088
:100870000000001211100000000000000000000045
:1008800000000000000000000000000000007923CC
:1008900011241FBECFEFD1E2DEBFCDBF00E00CBF01
:1008A00028E0AAE6B3E001C01D92A633B207E1F743
:1008B00013E0A0E0B2E0E6E9FDE600E00BBF02C015
:1008C00007900D92AA36B107D9F714E0C8E4D4E036
:1008D00000E006C021970109802FFE010E94FF342D
:1008E000C734D10780E00807A9F70E945B240C9465
:1008F000C9360C9400000F931F93CF93DF93582FAA
:10090000FC0180E077E0919148E0282F30E0A92FAA
:10091000B0E08901000F012F001F110B9170C92F4A
:1009200090E0D92F880F0C171D0721F0C901880FFF
:10093000991F8727B595A7959A2F415031F79E2F7C
:10094000951B961700F3DF91CF911F910F9108959A
:10095000E0915E04F0915F04E817F90769F4A38958
:10096000B4899C918589809589238C9310925F042A
:1009700010925E0481E0089580E00895CF93DF93A4
:10098000EC018A8D9B8D892B01F180915E04909101
:100990005F048C179D07C9F0009711F00E94A8040E
:1009A0008E8D8E7F8E8F10925D0410925C04D0939A
:1009B0005F04C0935E04EB89FC8980819D89892B4B
:1009C000808381E0DF91CF91089580E0FBCF81505B
:1009D000823108F05AC0E82FF0E08827ED50FB4F35
:1009E0008F4F0C94FF341305170505050B050F05F4
:1009F00045051A05200524052A052E05320538056A
:100A00003C054505400546054A05809180008F77E5
:100A1000809380000895809180008F7DF9CF809130
:100A20008000877FF5CF84B58F7784BD089584B526
:100A30008F7DFBCF8091B0008F778093B0000895B9
:100A40008091B0008F7DF9CF809190008F77809357
:100A500090000895809190008F7DF9CF8091900053
:100A6000877FF5CF8091A0008F778093A0000895B5
:100A70008091A0008F7DF9CF8091A000877FF5CF76
:100A8000809120018F77809320010895809120012B
:100A90008F7DF9CF80912001877FF5CFCF93DF93B2
:100AA000282F30E0F901E95BF74F8491F901EF5FFE
:100AB000F74FD491F901E554F84FC491CC23A1F03C
:100AC00081110E94E704EC2FF0E0EE0FFF1FEF55BD
:100AD000F84FA591B491EC91ED2381E090E009F4F9
:100AE00080E0DF91CF91089580E090E0FACF1F93EE
:100AF000CF93DF93282F30E0F901E95BF74F849122
:100B0000F901EF5FF74FD491F901E554F84FC49123
:100B1000CC23A9F0162F81110E94E704EC2FF0E0FE
:100B2000EE0FFF1FE957F84FA591B4918FB7F894D6
:100B3000EC91111108C0D095DE23DC938FBFDF91BB
:100B4000CF911F910895DE2BF8CFCF93DF9390E0E4
:100B5000FC01EF5FF74F24918554984FFC0184917D
:100B60008823C9F090E0880F991FFC01E359F84FE2
:100B7000A591B491FC01E957F84FC591D491611149
:100B80000DC09FB7F8948C91209582238C93888117
:100B9000282328839FBFDF91CF910895623051F4BD
:100BA0009FB7F8943C91822F809583238C93E881A2
:100BB0002E2BEFCF8FB7F894EC912E2B2C938FBF69
:100BC000EACF865320917B00982F987F277F922B26
:100BD00090937B008770806480937C0080917A0082
:100BE000806480937A0080917A0086FDFCCF8091AA
:100BF00078009091790008953FB7F8948091580457
:100C000090915904A0915A04B0915B0426B5A89B19
:100C100005C02F3F19F00196A11DB11D3FBFBA2F8E
:100C2000A92F982F8827BC01CD01620F711D811D4E
:100C3000911D42E0660F771F881F991F4A95D1F7D3
:100C400008958F929F92AF92BF92CF92DF92EF92D0
:100C5000FF924B015C010E94FC056B017C010E942C
:100C6000FC056C197D098E099F09683E734081055A
:100C70009105A8F321E0821A9108A108B10888EE35
:100C8000C80E83E0D81EE11CF11C81149104A1045C
:100C9000B10429F7FF90EF90DF90CF90BF90AF9015
:100CA0009F908F9008950F931F93CF93DF938C01A4
:100CB000D0E0C0E080912C080E944E05882359F0B6
:100CC0002A960C171D0768F06AE070E080E090E05B
:100CD0000E942106EFCF81E0DF91CF911F910F910C
:100CE000089580E0F9CF2FB7F89460915404709183
:100CF000550480915604909157042FBF0895AF92E8
:100D0000BF92CF92DF92EF92FF920F931F93CF93F8
:100D1000DF936C017B018B01040F151FEB015E015A
:100D2000AE18BF08C017D10759F06991D601ED91EF
:100D3000FC910190F081E02DC6011995892B79F77E
:100D4000C501DF91CF911F910F91FF90EF90DF9040
:100D5000CF90BF90AF900895FC01538D448D252F07
:100D600030E0842F90E0821B930B541710F0CF9645
:100D7000089501970895FC01918D828D981761F077
:100D8000A28DAE0FBF2FB11D5D968C91928D9F5F8E
:100D90009F73928F90E008958FEF9FEF08950F93C8
:100DA0001F930E9473066093FA047093FB04809370
:100DB000FC049093FD0482EF94E00E94BB0697FF31
:100DC0001DC00E9473060091FA041091FB0420914B
:100DD000FC043091FD04601B710B820B930B00919E
:100DE000F6041091F7042091F8043091F90460178B
:100DF000710782079307F8F28FEF9FEF1F910F9112
:100E00000895FC01918D828D981731F0828DE80F45
:100E1000F11D858D90E008958FEF9FEF0895FC01FF
:100E2000918D228D892F90E0805C9F4F821B9109CC
:100E30008F739927089586E597E00E940F0721E0B8
:100E4000892B09F420E0822F089582EF94E00E941C
:100E50000F0721E0892B09F420E0822F0895FC017F
:100E6000A48DA80FB92FB11DA35ABF4F2C91848D0B
:100E700090E001968F739927848FA689B7892C9368
:100E8000A089B1898C91837080648C93938D848DBB
:100E9000981306C00288F389E02D80818F7D8083BE
:100EA0000895EF92FF920F931F93CF93DF93EC017E
:100EB00081E0888F9B8D8C8D98131AC0E889F98901
:100EC000808185FF15C09FB7F894EE89FF89608304
:100ED000E889F98980818370806480839FBF81E085
:100EE00090E0DF91CF911F910F91FF90EF900895C7
:100EF000F62E0B8D10E00F5F1F4F0F731127E02EA2
:100F00008C8D8E110CC00FB607FCFACFE889F989D9
:100F1000808185FFF5CFCE010E942F07F1CFEB8DA9
:100F2000EC0FFD2FF11DE35AFF4FF0829FB7F894AD
:100F30000B8FEA89FB8980818062CFCF0F931F934B
:100F4000CF93DF938C01D0E0C0E0F801EC0FFD1FE0
:100F50006491662341F082EF94E00E945107892B4F
:100F600011F02196F2CFCE01DF91CF911F910F9119
:100F70000895CF93DF93EC01888D8823B9F0AA8977
:100F8000BB89E889F9898C9185FD03C0808186FD44
:100F90000DC00FB607FCF7CF8C9185FFF2CF808193
:100FA00085FFEDCFCE010E942F07E9CFDF91CF91D2
:100FB000089580E090E0892B29F00E942507811197
:100FC0000E94000080E090E0892B29F00E941B071E
:100FD00081110E94000080E090E0892B49F080E0C0
:100FE00090E0892B29F00E94000081110E940000EE
:100FF00080E090E0892B49F080E090E0892B29F097
:101000000E94000081110C94000008952091AE030D
:10101000260F3327331F21323105ECF42091CA0407
:10102000FC0190E080E0243069F082E00895A09116
:10103000AE032191AC0144575C4FA40FB52FB11DF5
:101040002C930196861798F38091AE03680F6093F6
:10105000AE0380E0089581E008951092CA0481E013
:101060008093C9041092C40461E084E10E94770572
:1010700061E085E10E947705E9EBF0E080818E7FF9
:10108000808380818D7F808388E48093B80085E4AD
:101090008093BC000895CF93DF9391E090938B03EE
:1010A0008823B9F0C091B800D091BA008091BC00FB
:1010B0008A7B8093BC0060E084E10E94770560E059
:1010C00085E10E9477050E942D08D093BA00C09355
:1010D000B800DF91CF910895089508950895E091A3
:1010E000D1048091D004E81730F4F0E0EE52FB4FC9
:1010F000808190E008958FEF9FEF08959091D10443
:101100008091D0042FEF3FEF981748F4E92FF0E0DB
:10111000EE52FB4F208130E09F5F9093D104C901D4
:1011200008958091D0049091D104891B990B089562
:10113000CF92DF92EF92FF920F931F93CF93DF93A3
:101140007C01CB018A0120918304222389F0EB01E9
:101150006B01C40ED51ECC15DD0569F06991D70170
:10116000ED91FC910190F081E02DC7011995F3CF2D
:10117000642F0E940608C801DF91CF911F910F9143
:10118000FF90EF90DF90CF900895CF93DF931F9261
:10119000CDB7DEB76983209183042223F9F0209133
:1011A0008004203258F021E030E0FC0133832283B8
:1011B00090E080E00F90DF91CF91089580918104BD
:1011C000E82FF0E0E05AFB4F998190838F5F809386
:1011D00081048093800481E090E0ECCF61E0CE0157
:1011E00001960E940608F7CF90E080E00895CF9323
:1011F000DF93FC012381222359F1EC0161E084811A
:101200000E94A50561E08D810E94A5058B81843037
:1012100011F08830B1F461E08E810E94A50561E093
:101220008F810E94A5058FA58F3F91F061E00E94FC
:10123000A5056EA581E068278FA5DF91CF910C945D
:101240007705833011F0863071F761E08E81E9CF48
:10125000DF91CF910895CF93DF93FC012381222367
:10126000A9F0EC010190F081E02D0480F581E02DE2
:1012700060E019958FA58F3F49F061E00E94A505B8
:101280006EA58FA5DF91CF910C947705DF91CF915B
:101290000895DC01ED91FC9111972481358147700F
:1012A0005527662777274150510961097109473051
:1012B00051056105710570F4FA018827ED59F64F63
:1012C0008F4F0C94FF346E09700972097409760906
:1012D00078097A0961E0CD01F901199465E0FBCF45
:1012E00064E0F9CF66E0F7CF62E0F5CF6AE0F3CFD4
:1012F00068E0F1CF69E0EFCFCF93DF93EC01CB0152
:10130000BA0126E030E040E050E00E94E034623074
:1013100071058105910589F16CF4611571058105EF
:101320009105D1F06130710581059105F9F0DF91EA
:10133000CF910895643071058105910561F124F123
:10134000653071058105910591F7E881F981048087
:10135000F581E02D66E006C0E881F9810480F58121
:10136000E02D64E0CE01DF91CF911994E881F981FD
:101370000480F581E02D65E0F5CFE881F9810480F6
:10138000F581E02D61E0EECFE881F9810480F581FF
:10139000E02D63E0E7CFE881F9810480F581E02D5D
:1013A00062E0E0CFDC01ED91FC910480F581E02D5D
:1013B000437055276627772742305105610571052F
:1013C00071F0433051056105710559F04130510507
:1013D0006105710511F065E0199466E0FDCF6AE0E2
:1013E000FBCF69E0F9CFCF93DF93EC01CB01BA01DA
:1013F00023E030E040E050E00E94E03461307105CD
:101400008105910599F06230710581059105A9F07A
:10141000672B682B692BC1F4E881F9810480F58181
:10142000E02D64E0CE01DF91CF911994E881F9813C
:101430000480F581E02D61E0F5CFE881F981048039
:10144000F581E02D62E0EECFDF91CF910895DC01D0
:10145000ED91FC910480F581E02D437055276627BE
:101460007727423051056105710571F04330510510
:101470006105710559F0413051056105710511F0A3
:1014800062E0199463E0FDCF61E0FBCF60E0F9CF4B
:10149000CF93DF93EC01E881F9810480F581E02DA1
:1014A0008A8160E0811162E0CE011995E881F981BD
:1014B0000480F581E02D8A8161E0811163E0CE0135
:1014C00019958CA59DA58230910538F0880F991F3C
:1014D000880F991F05970197F1F7E881F98104803A
:1014E000F581E02D8A8160E0811162E0CE01DF911B
:1014F000CF911994CF93DF93EC0120E030E0A90164
:101500006C897D898E899F890E94523618162CF429
:10151000E8A9F9A9DF91CF911994EAA9FBA9FACF1B
:10152000CF92DF92EF92FF920F931F93CF93DF93AF
:10153000DC011396CC91C43039F0C83059F1C33076
:1015400019F0C63049F1C2E08C010C5F1F4FF12C3D
:10155000E12CC62ED12CD1E0F8016481C6010E2CFD
:1015600002C0959587950A94E2F780FD6D270F5F7D
:101570001F4F80810E947705BFEFEB1AFB0AEC1624
:1015800058F3DF91CF911F910F91FF90EF90DF9073
:10159000CF900895C4E0D8CFC3E0D6CFDC01139636
:1015A000EC911397E93008F042C0F0E08827E4524C
:1015B000F54F8F4F0C94FF34E50AED0AF40AFB0A4D
:1015C000020B170B090B170B100BED91FC911197E8
:1015D0000084F185E02DCD011994ED91FC911197D6
:1015E0000284F385E02DF7CFED91FC9111970484EF
:1015F000F585E02DF0CFED91FC9111970684F785EC
:10160000E02DE9CFED91FC9111970088F189E02D53
:10161000E2CFED91FC9111970288F389E02DDBCFA9
:10162000ED91FC9111970488F589E02DD4CF0895B0
:101630004F925F926F927F928F929F92AF92BF92E2
:10164000CF92DF92EF92FF920F931F93CF93DF938E
:10165000EC01C888D988EA88FB888C859D85AE8591
:10166000BF85C81AD90AEA0AFB0A6C897D898E8966
:101670009F899B01AC010E94EA334B015C016C8D98
:101680007D8D8E8D9F8D9B01AC010E943E359B010F
:10169000AC01C501B4010E94AA350E941C36C114D8
:1016A000D104E104F10409F0B1C062307105810593
:1016B00091050CF0CBC01CA21DA21EA21FA21C8A69
:1016C0001D8A1E8A1F8A1CAA1DAA1EAA1FAADF9194
:1016D000CF911F910F91FF90EF90DF90CF90BF902F
:1016E000AF909F908F907F906F905F904F900895F4
:1016F0001016110612061306B4F46C157D058E053E
:101700009F051CF42A812111A1C09B01AC018827EF
:101710009927DC01821B930BA40BB50B8CAB9DAB03
:10172000AEABBFAB93C0011511052105310509F41E
:101730008DC06C157D058E059F050CF087C08A81D4
:10174000882309F483C030952095109501951F4F8B
:101750002F4F3F4F0CAB1DAB2EAB3FAB77C00115EE
:1017600011052105310509F471C08824992454011B
:101770008C189D08AE08BF08681579058A059B0579
:101780000CF064C08A81811161C0DDCFCCACDDACCE
:10179000EEACFFACA7019601C701B6010E943E3531
:1017A0002B013C01C501B4010E948B3320E030E0E5
:1017B00040E850E40E94EA3320E030E040E85FE394
:1017C0000E943E359B01AC01C301B2010E94AA35C3
:1017D0009B01AC01C701B6010E943D353B016C0184
:1017E000FE01E05CFF4FE080F180028113819701F0
:1017F000A8010E945236181614F473018601C7011D
:10180000D8018CAF9DAFAEAFBFAF3AC00CA91DA938
:101810002EA93FA91C141D041E041F040CF468CF3C
:1018200010161106120613060CF099CF0027112787
:1018300098010C191D092E093F09601771078207CD
:1018400093070CF062CF2A8121115FCF8CA89DA84D
:10185000AEA8BFA881149104A104B10409F096CFE9
:1018600088AD99ADAAADBBAD8CAF9DAFAEAFBFAFEC
:1018700081E01C141D041E041F040CF080E08A8308
:101880003FEF831A930AA30AB30A8CAA9DAAAEAAB1
:10189000BFAACCACDDACEEACFFACC701B6010E9478
:1018A00023366CA37DA38EA39FA3A701960160E0BE
:1018B00074E284E799E40E94AA356C8B7D8B8E8B51
:1018C0009F8B2A81211103CF90586C8B7D8B8E8B3F
:1018D0009F8BFDCECF92DF92EF92FF920F931F93DB
:1018E000CF93DF93EC016A017B0120E030E0A90196
:1018F000CB01B6010E94843387FF04C0F7FAF0944D
:10190000F7F8F094A7019601688D798D8A8D9B8DEB
:101910000E948433882309F446C0C88ED98EEA8E8B
:10192000FB8E8E01005C1F4FA701960160E074E200
:1019300084E799E40E94AA35F80160837183828369
:1019400093838CA99DA9AEA9BFA9181619061A06DA
:101950001B064CF56C897D898E899F899B01AC01A2
:101960000E94EA336B017C016C8D7D8D8E8D9F8D85
:101970009B01AC010E943E359B01AC01C701B60141
:101980000E94AA350E941C366CAB7DAB8EAB9FAB20
:10199000CE01DF91CF911F910F91FF90EF90DF90DB
:1019A000CF900C94180BDF91CF911F910F91FF9066
:1019B000EF90DF90CF900895CF92DF92EF92FF9259
:1019C000CF93DF93EC018CA19DA1AEA1BFA1892B88
:1019D0008A2B8B2BB9F10E94FC056B017C0188A539
:1019E00099A5AAA5BBA5B701A601481B590B6A0B6F
:1019F0007B0B8CA19DA1AEA1BFA1481759076A0717
:101A00007B0700F18C859D85AE85BF852A812223C9
:101A1000D1F10196A11DB11D8C879D87AE87BF872F
:101A20004C855D856E857F85E881F9810680F7812B
:101A3000E02DCE011995C8A6D9A6EAA6FBA6CE012F
:101A40000E94180B20E030E0A9016C897D898E8905
:101A50009F890E94843381111AC081E0C888D98887
:101A6000EA88FB884C855D856E857F85C416D50622
:101A7000E606F70609F480E0DF91CF91FF90EF9042
:101A8000DF90CF9008950197A109B109C5CF81E0FA
:101A9000F3CF0F931F93FC010089118922893389A9
:101AA000041715072607370741F0408B518B628BCF
:101AB000738B1F910F910C94180B1F910F91089528
:101AC0004F925F926F927F928F929F92AF92BF924E
:101AD000CF92DF92EF92FF92CF93DF93EC014C888D
:101AE0005D886E887F8820E030E0A901C301B201E3
:101AF0000E948433882309F447C0A3019201C301E3
:101B0000B2010E94EA336B017C016C8D7D8D8E8D5C
:101B10009F8D9B01AC010E943E359B01AC01C7012A
:101B2000B6010E94AA350E941C366B017C018C8490
:101B30009D84AE84BF8420E030E0A901C301B201DE
:101B40000E945236B701A6011816CCF44F5F5F4FC2
:101B50006F4F7F4F480D591D6A1D7B1DCE01DF91D0
:101B6000CF91FF90EF90DF90CF90BF90AF909F907C
:101B70008F907F906F905F904F900C94490D40959F
:101B8000509560957095E6CFDF91CF91FF90EF90E3
:101B9000DF90CF90BF90AF909F908F907F906F908D
:101BA0005F904F900895CF93DF93EC016C8161704B
:101BB00088810E9477056C81669561708A81DF91CA
:101BC000CF910C947705CF92DF92EF92FF921F9303
:101BD000CF93DF93EC0190E080E00E94893325ED04
:101BE00034E045E352E40E94EA3320E030E04AE783
:101BF00054E40E94AA356B017C012AE037ED43EAE8
:101C00005CE369857A858B859C850E943E35A701BA
:101C100096010E94EA3326E636E646EA5EE30E9433
:101C2000AA3520E030E040E85FE30E943D350E94A5
:101C30002336162FE881F9810480F581E02D60318B
:101C400008F060C061E0CE0119952AE037ED43EA63
:101C50005CE369857A858B859C850E943E35A7016A
:101C600096010E94EA332CEE31E548E35EE30E94E0
:101C7000AA3520E030E040E85FE30E943D350E9455
:101C80002336162F103208F01FE1912F9F718B81A0
:101C9000807E892B8B832A81382F8C81482F4F702F
:101CA00050E0E881F9810190F081E02D60E1CE0102
:101CB0001995612F70E090E080E00E948B332D85B4
:101CC0003E854F8558890E94EA330E942336862F2D
:101CD0008F716A81607E682B6A83262F3B818C819D
:101CE000482F4F7050E0E881F9810190F081E02D9C
:101CF00060E1CE01DF91CF911F91FF90EF90DF90D7
:101D0000CF90199460E0CE011995BCCFFC01A4A539
:101D1000B5A5109749F0ED91FC9111970190F081D4
:101D2000E02DCD011995089582A593A5009739F06E
:101D3000DC01ED91FC910190F081E02DF3CF80E08A
:101D40000895CF92DF92EF92FF920F931F93CF935C
:101D5000DF9300D000D01F921F92CDB7DEB77C0179
:101D600018861F8285E08983F70182A98A836068CB
:101D70006B835C834D833E832F8367E0CE010196A6
:101D80000E947B048887F70182A593A5892B31F0F7
:101D900080A991A9009711F00E94D30D8E010F5FC9
:101DA0001F4F6E01F9E0CF0ED11CF80161918F0138
:101DB000C7010E94860EF70121893289820F932F75
:101DC000911D928B818B0C151D0579F762E070E0F7
:101DD00080E090E00E94210628960FB6F894DEBFBE
:101DE0000FBECDBFDF91CF911F910F91FF90EF906C
:101DF000DF90CF900895FC01A4A5B5A5109741F000
:101E0000ED91FC9111970284F385E02DCD01199499
:101E100082A593A5009739F0DC01ED91FC91028435
:101E2000F385E02DF4CF90E080E00895FC01A4A5B7
:101E3000B5A5109741F0ED91FC9111970084F185C3
:101E4000E02DCD01199482A593A5009739F0DC010E
:101E5000ED91FC910084F185E02DF4CF90E080E0DD
:101E600008952F923F924F925F926F927F928F923E
:101E70009F92AF92BF92CF92DF92EF92FF920F9319
:101E80001F93CF93DF93CDB7DEB761970FB6F8946A
:101E9000DEBF0FBECDBF1C011C861B8685E0898777
:101EA000F10182A98A876B8763E0CE0109960E94BF
:101EB0007B048C87F2E0F98B9E01235F3F4F3E87C6
:101EC0002D87F10184A595A5009761F00E94BE04BD
:101ED000C1010E94160F181619067CF4C1010E9458
:101EE000FB0EF6CF82A593A5892B91F380A991A92A
:101EF000009771F30E94D30DEBCFF10186A597A552
:101F0000009741F061E00E94770561E0F10186A54C
:101F10000E94A5058E01075F1F4FF80161918F0197
:101F2000C1010E94860E2D853E8502171307A9F771
:101F3000F10186A597A5009719F062E00E94A5051A
:101F400062E070E080E090E00E9421060E9473064B
:101F50002B013C018985CB84D12CF12CE12CDD2493
:101F6000DA94E82A812C912C540105E010E00E94BB
:101F70007306641575058605970531F00150110942
:101F800009F474C02B013C01C1010E94FB0E97FDB6
:101F90000FC07A2D692D582D44274C019924092C06
:101FA000000CAA08BB08842A952AA62AB72ABB24B3
:101FB000C814D904EA04FB04D1F626013701812CA8
:101FC000912C54010E9473066B017C0125E030E0E6
:101FD000388B2F8710E00E9473066C157D058E05E7
:101FE0009F0549F0EF85F8893197F88BEF87EF2B44
:101FF000E9F16B017C01C1010E94FB0EDC0197FD40
:102000001CC09201A301B401C50108E00E9407357C
:10201000BB27EB2FEE0FEE0B422E4A2A532E5B2AE4
:102020006E2E642A7E2E752A8E2E862A9E2E972A42
:10203000AE2EA82ABE2EB92A1F5F153061F6F10117
:1020400086A597A5009741F061E00E94770561E0C1
:10205000F10186A50E94A505C1010E94160F181660
:10206000190664F4C1010E94FB0EF6CF412C512CDD
:10207000612C712C812C912CA12CB12CF10184A507
:1020800095A5009711F00E94A80462E070E080E03E
:1020900090E00E942106F101178A9201A301B40188
:1020A000C50108E30E94223529839201A301B401EE
:1020B000C50100E30E9422352A839201A301B401E5
:1020C000C50108E20E9422352B839201A301B401CD
:1020D000C50100E20E9422352C839201A301B401C4
:1020E000C50108E10E9422352D839201A301B401AC
:1020F000C50100E10E9422352E839201A301B401A3
:10210000C50108E00E9422352F83488667E0CE0192
:1021100001960E947B04481202C0411011C081E068
:10212000F101878BF989F13019F021E0298BC9CEB3
:10213000412C512C612C712C812C912CA12CB12C77
:102140009201A301B401C50108E00E942235B90142
:10215000CA0161960FB6F894DEBF0FBECDBFDF9106
:10216000CF911F910F91FF90EF90DF90CF90BF9094
:10217000AF909F908F907F906F905F904F903F9027
:102180002F900895DC01ED91FC910280F381E02D08
:102190006FE61994262F2F70DC0195966C91959718
:1021A000607F622B95966C93959792962D913D91B9
:1021B0004D915C919597ED91FC910190F081E02D0E
:1021C0006CE61994DC0194962C91949760FB21F9AC
:1021D00094962C93949792962D913D914D915C916C
:1021E0009597ED91FC910190F081E02D6CE61994AA
:1021F000DC0193968C91939760FB87F993968C936F
:10220000939761FB882780F994966C9194976E7FE1
:10221000682B94966C93949792962D913D914D9145
:102220005C919597ED91FC9111970190F081E02DD3
:102230006CE6CD011994DC0192968C91929760FB2B
:1022400087F992968C9392976695677093968C9186
:102250009397887F682B93966C93939792962D9182
:102260003D914D915C919597ED91FC911197019065
:10227000F081E02D6CE6CD0119946770262F229530
:10228000207FDC0192966C9192976F78622B9296E8
:102290006C93929792962D913D914D915C9195976B
:1022A000ED91FC910190F081E02D6CE61994262FC0
:1022B0002F70DC0192966C919297607F622B9296C0
:1022C0006C93929792962D913D914D915C9195973B
:1022D000ED91FC910190F081E02D6CE61994DC0108
:1022E000ED91FC910280F381E02D6CE619940E943F
:1022F0006F11892F8F7008950E946F1186958170DC
:1023000008950E946F11771F7727771F8170880FBC
:10231000872B08950E946F11862F881F8827881F9A
:102320007770770F872B08950E946F11862F829503
:10233000877008955F926F927F928F929F92AF9273
:10234000BF92CF92DF92EF92FF920F931F93CF93A2
:10235000DF930DED12E08BECE82E82E0F82E9FE18A
:10236000C92ED12C77247394512C2DE1A22EB12C9F
:102370003DE0832E912C66246394D801CD91DD91AC
:102380008D01ECA5FDA5309709F46DC0138E128E5A
:10239000118E108E178A168AD58EC48E848596EF7C
:1023A000980F943048F02EEC280F243028F022ECBF
:1023B000280F283008F050C0768A578AB18EA08E38
:1023C000938E828E943050F02EEC280F243030F013
:1023D00022EC280FB0E0A0E0283010F4A8E6B0E02E
:1023E0002C91943028F032EC380F383008F4B2C019
:1023F00031E0232B943048F09EEC980F943028F075
:102400008E53B0E0A0E0883010F4A8E6B0E02C9342
:10241000848596EF980F943008F49EC02EEC280F18
:10242000243008F499C022EC280F283008F497C013
:1024300030E020E0348B238B943008F093C086503A
:10244000990BB72D01C0BB0F8A95EAF78B2F858BAF
:10245000848D958D0197F1F7CF010E94BE048CA564
:102460009DA50E94A8048EA59FA5009739F061E064
:102470000E94770561E08EA50E94A505888D806485
:10248000888F282F898D382F337050E040E0E88105
:10249000F9810190F081E02D60E0CE011995888DE1
:1024A0008068888F282F898D382F337050E040E066
:1024B000E881F9810190F081E02D60E0CE0119956D
:1024C000E881F9810288F389E02D65E0CE01199554
:1024D000888D8B7F888F282F898D382F337050E01F
:1024E00040E0E881F9810190F081E02D60E0CE01CB
:1024F000199588A5846088A72EA13FA148A559A554
:10250000E881F9810190F081E02D60E7CE01199515
:1025100063E0CE010E945711D701ED91FD917D013D
:102520001086618666A6B2E0053E1B0709F025CF3E
:1025300060925104DF91CF911F910F91FF90EF9026
:10254000DF90CF90BF90AF909F908F907F906F90D3
:102550005F90089534E04DCF2BE630E06BCF2DE651
:1025600030E068CF823389F0833389F0843389F097
:1025700092EC980F983078F48E53990B272D01C068
:10258000220F8A95EAF7822F62CF88E060CF84E03D
:102590005ECF82E05CCF81E05ACFCF93DF93D82F1C
:1025A00087E696E00E94DC0CC82F83E296E00E944A
:1025B000DC0CC82B8FED95E00E94DC0CC82B8BE95E
:1025C00095E00E94DC0C81118D2F8C2B91E08927E6
:1025D000DF91CF91089560E083EF97E00E9457115B
:1025E00060E08DE197E00E94571160E084EE96E094
:1025F0000E94571160E08BEA96E00E94571180918B
:10260000A1029091A202A091A302B091A4028260C3
:102610009260A260B2608093A1029093A202A09304
:10262000A302B093A40210924F04089587E696E0A7
:102630000E94600D83E296E00E94600D8FED95E0B0
:102640000E94600D8BE995E00E94600D10924F048E
:1026500010924C040895861B970B0895860F971FC0
:102660000895962728E0AC01880F991F57FF03C0F3
:1026700035E0832790582150B1F70895FC01E60F0B
:10268000F11D808190ED980F9A3010F099EC980F21
:102690009295907F218180ED820F8A3010F089EC35
:1026A000820F892B089587ED93E00C949E07FC011F
:1026B000608170E090E080E0982F872F762F66276A
:1026C0002181622B982F872F762F66272281622BFC
:1026D000982F872F762F66272381622B0895FA0182
:1026E000908381837283638308958F929F92AF92C8
:1026F000BF92CF92DF92EF92FF920F931F93CF93EF
:10270000DF9300D000D01F921F92CDB7DEB760914B
:10271000A1027091A2028091A3029091A402AE0145
:102720004B5F5F4F0E946F138DEDA82E82E0B82E95
:10273000CE0105966C018E010F5F1F4FF12C902E7C
:10274000E12E88248A94D5018D919D915D01DC0153
:10275000ED91FC910084F185E02D1995F60161154C
:1027600071058105910541F06F3FBCEF7B07BFE02C
:102770008B07910509F051C0808181608083D80169
:102780008C92FF24F394BFEFCB1ADB0A0F5F1F4F2D
:10279000E5EEAE16E2E0BE06B1F6CE0105960E9469
:1027A00057136093A1027093A2028093A3029093A7
:1027B000A402892D9E2D0E94571360939D02709351
:1027C0009E0280939F029093A00280919902909123
:1027D0009A02A0919B02B0919C02FF2029F1806196
:1027E0008093990290939A02A0939B02B0939C02CB
:1027F00081E08F2528960FB6F894DEBF0FBECDBFBF
:10280000DF91CF911F910F91FF90EF90DF90CF90CC
:10281000BF90AF909F908F90089520812E7F20834E
:102820006C73D8016C93AFCF8F7EDACF87E00E94B4
:102830004E054091990250919A0260919B027091CD
:102840009C02892B01F142604093990250939A02B5
:1028500060939B0270939C0285E40E944E05409118
:10286000990250919A0260919B0270919C02892B6F
:1028700061F444604093990250939A0260939B02E2
:1028800070939C0208954D7FDFCF4B7FF3CF8AE397
:102890000E944E05892B11F480E008958BE30E947D
:1028A0004E05892BC9F31092D1041092D0041092D6
:1028B0008104109280040E942D088CE698E0909389
:1028C000AD038093AC038DE698E09093B1038093C1
:1028D000B00381E008958F929F92AF92BF92CF9202
:1028E000DF92EF92FF9284E40E94E105BC01990F10
:1028F000880B990B0E948B3320E030E047E152E4D3
:102900000E94AA354B015C0120E030E040EA51E42E
:102910000E945236C0909902D0909A02E0909B0299
:10292000F0909C021816ECF420E030E040ED51E409
:10293000C501B4010E94843387FF13C0E894C0F836
:10294000C0929902D0929A02E0929B02F0929C026D
:10295000FF90EF90DF90CF90BF90AF909F908F90BF
:1029600008956894C0F8ECCFFC0101900020E9F7CD
:102970003197AF01481B590BBC0182EF94E00C94D6
:102980007F06CF93DF930E949E07EC0181E493E0E2
:102990000E94B4148C0F9D1FDF91CF91089583374F
:1029A00089F044F4823761F083EE93E00E94C11411
:1029B0008FEF0895843741F08A37B1F781E00895A9
:1029C00082E0089583E0089580E008958F929F92B9
:1029D000AF92BF920F931F93CF93DF93CDB7DEB724
:1029E000A1970FB6F894DEBF0FBECDBF19A242303B
:1029F00008F44AE08E010F5D1F4F842E912CB12CFC
:102A0000A12CA50194010E94BE34E62FB901CA0190
:102A1000EA30F4F4E05DD801EE938D01232B242BF2
:102A2000252B79F790E080E0109719F0CD010E94F6
:102A3000B414A1960FB6F894DEBF0FBECDBFDF91E0
:102A4000CF911F910F91BF90AF909F908F9008955D
:102A5000E95CE1CFCF92DF92EF92FF92CF93DF93C9
:102A60006B017C016DE282EF94E00E945107EC0162
:102A700066277727CB016C197D098E099F094AE0EB
:102A80000E94E6148C0F9D1FDF91CF91FF90EF9075
:102A9000DF90CF9008954F925F926F927F928F92C6
:102AA0009F92AF92BF92FF920F931F93CF93DF93AA
:102AB000082FF92E162F0E94FC054B015C01809116
:102AC000CA04811167C081E08093CA048093C9045D
:102AD0009FEF9093C8041092C70491E0910F9093D8
:102AE000C6048093C5048091C50488648093C5049E
:102AF0008091C404813009F09BC01092C4040E94EC
:102B0000FC054B015C018091C5048093BB00809162
:102B1000CC049091CD04A091CE04B091CF04892B28
:102B20008A2B8B2BA1F00E94FC054090CC04509086
:102B3000CD046090CE047090CF04681979098A0999
:102B40009B09461657066806790608F444C080912A
:102B5000BC0083FDD8CF85EC8093BC000E94FC05AF
:102B60004B015C018091CA04813009F463C082E0AA
:102B7000810F9091C704981710F48091C704A4EABC
:102B8000B4E0E2EDF4E090E0981751F12D9121933B
:102B90009F5FFACF8091CC049091CD04A091CE0498
:102BA000B091CF04892B8A2B8B2B09F488CF0E94FC
:102BB000FC054090CC045090CD046090CE04709001
:102BC000CF04681979098A099B09461657066806D1
:102BD000790608F074CF8091CB040E944B0880E006
:102BE0001092D1048093D0048FE895E00E947E0873
:102BF000B02EC02FDF2D61E070E080E090E00E94F9
:102C000021068FE895E00E947E0889938C2F8B190E
:102C1000811788F3DF91CF911F910F91FF90BF90A3
:102C2000AF909F908F907F906F905F904F9008959E
:102C300085EE92CF8091CC049091CD04A091CE04EA
:102C4000B091CF04892B8A2B8B2B09F48BCF0E9458
:102C5000FC054090CC045090CD046090CE04709060
:102C6000CF04681979098A099B0946165706680630
:102C7000790608F077CFAFCFCF93DF9397FF0CC0E3
:102C80000E942A15EC0181E493E00E94B4148C0F99
:102C90009D1FDF91CF9108954AE00E94E614F2CF84
:102CA000CF93DF9384ED93E00E949E07C0E0809174
:102CB0007203C817B0F4EC2FF0E0EE58FC4FD0814F
:102CC00083E493E0D03110F484E493E00E94B414E0
:102CD0006D2F70E090E080E040E10E94E614CF5F4D
:102CE000E6CF6AE082EF94E0DF91CF910C94510738
:102CF0000F931F93CF93DF93C42F04E0040F00932F
:102D0000720380937303962FA4E7B3E0FB018E2F29
:102D1000891B8C1718F481918D93F9CFD0E08FEF38
:102D20009FEF0250110B2D2F30E02017310744F494
:102D30002E583C4FF90160810E943113DF5FF3CFC1
:102D4000EC2FF0E0EE58FC4F92838383DF91CF911C
:102D50001F910F910C9450161F93CF93DF931F92E6
:102D6000CDB7DEB7182F198290E08981833008F53E
:102D7000E82FF0E0EE0FFF1FE354FD4F0190F081CC
:102D8000E02D4081518162817381452B462B472B79
:102D900061F0823011F4112341F041E0BE016F5F18
:102DA0007F4F8EEE0E94781691E089818F5F898334
:102DB000DCCF61E0911101C060E08AE00E947705FC
:102DC0000F90DF91CF911F910895CF93DF931F92C2
:102DD000CDB7DEB7898341E0BE016F5F7F4F88EFDB
:102DE0000E9478160F90DF91CF910895CF93DF93D3
:102DF000D82FC62F0E9475136091990270919A0284
:102E000080919B0290919C0261157105810591054D
:102E100001F560919D0270919E0280919F029091B8
:102E2000A002611571058105910549F56091A10226
:102E30007091A2028091A3029091A4026115710584
:102E400081059105F1F4809198028530E1F089EED9
:102E500012C0C0E04AE00E94E61481E493E00E94C0
:102E6000B41486E493E00E94B41481E493E00E94D9
:102E7000B41481EE8C0F0E94E51680E00DC0C1E015
:102E8000E9CFC2E0E7CF80914F04811108C0D09311
:102E90004F04C0934E0481E0DF91CF91089584EEFA
:102EA000EACF4F925F926F927F92AF92BF92CF9292
:102EB000DF92EF92FF920F931F93CF93DF9300D097
:102EC00000D0CDB7DEB7182F5B01CC24C394C80E59
:102ED00062E070E080E090E00E94210681E0809353
:102EE000830484E28093820410928104109280040F
:102EF00060E08FE895E00E94C50860E08FE895E00B
:102F00000E94C5086FEF8FE895E00E94C5086C2D00
:102F10008FE895E00E94C508612F60958FE895E0E5
:102F20000E94C50864ED8FE895E00E94C50800E0A6
:102F300013ED2C2D2150330B6901802F90E08C155F
:102F40009D0574F4FC01EC57FB4F7F0160818FE815
:102F500095E00E94C508F7018081180F0F5FEDCF43
:102F6000612F60958FE895E00E94C50860E08FE8CA
:102F700095E00E94C50810918004113208F091C0BC
:102F80000E94FC056B017C018091CA04811164C020
:102F900082E08093CA0481E08093C9048FEF80931C
:102FA000C8041092C7041093C604E0E6F4E0A4EA53
:102FB000B4E080E01813A8C01092C5048091C50445
:102FC00088648093C5048091C404813009F0A0C056
:102FD0001092C4040E94FC056B017C018091C50421
:102FE0008093BB008091CC049091CD04A091CE043D
:102FF000B091CF04892B8A2B8B2B99F00E94FC0572
:103000000091CC041091CD042091CE043091CF04D6
:103010006C197D098E099F090617170728073907BC
:10302000E0F18091BC0083FDD9CF85EC8093BC009A
:103030000E94FC056B017C018091CA04823009F476
:1030400069C08091C8048F3F61F18091C8048032CB
:1030500041F18091C80425C08091CC049091CD04A9
:10306000A091CE04B091CF04892B8A2B8B2B09F42D
:103070008BCF0E94FC054090CC045090CD04609012
:10308000CE047090CF046C197D098E099F094616F5
:1030900057066806790608F077CF8091CB040E9426
:1030A0004B08109281041092800410928304C50191
:1030B0000E945306282F882389F066E0CE010196EE
:1030C0000E944B1546E050E065EA72E0CE010196A1
:1030D0000E94BC3621E0892B09F020E0822F269641
:1030E0000FB6F894DEBF0FBECDBFDF91CF911F9119
:1030F0000F91FF90EF90DF90CF90BF90AF907F90B7
:103100006F905F904F90089591919D938F5F52CFF4
:1031100085EE8CCF8091CC049091CD04A091CE040B
:10312000B091CF04892B8A2B8B2B09F485CF0E9479
:10313000FC050091CC041091CD042091CE04309177
:10314000CF046C197D098E099F09061717072807F8
:10315000390708F071CFA1CFEF92FF920F931F9321
:10316000CF93DF938C017B01EA018AE4809384048E
:1031700081E08093850410928604BA0183E00E9466
:103180005117882321F1CE010E945306C82F8823AE
:10319000F1F064E184E894E00E944B1580918B0487
:1031A0008130A9F480919004F701808380E09091B0
:1031B0009004891768F4282F30E0F901EC57FB4F91
:1031C0009585200F311FF90190838F5FF0CFC0E00C
:1031D0008C2FDF91CF911F910F91FF90EF90089569
:1031E000CF92DF92EF92FF920F931F93CF93DF93D3
:1031F00000D000D01F921F92CDB7DEB70E94730699
:1032000000916E0310916F03209170033091710350
:103210006B017C01C01AD10AE20AF30A9701860108
:10322000093B1B4021053105C8F160936E03709383
:103230006F0380937003909371038E010F5F1F4F94
:1032400087E0F80111928A95E9F742E350E0BE0168
:10325000685F7F4FC8010E94AC18882371F1C801D4
:103260000E9457136B017C0180916A0390916B035C
:10327000A0916C03B0916D03C816D906EA06FB064F
:1032800069F047E0B80183EA0E947816C0926A03A9
:10329000D0926B03E0926C03F0926D0328960FB608
:1032A000F894DEBF0FBECDBFDF91CF911F910F917C
:1032B000FF90EF90DF90CF90089542E350E0BE0181
:1032C000685F7F4FC8010E94AC188111E7CF109250
:1032D0006A0310926B0310926C0310926D03DECFA1
:1032E000CF93DF9361E083E00E94770582E08093D3
:1032F000840464E670E081E00E945117C82F8111B8
:1033000005C0C0E08C2FDF91CF9108956CE084E878
:1033100094E00E944B1546E050E065E372E084E8DB
:1033200094E00E94BC36892B61F780918B049091C8
:103330008C04982789279827B0E0A0E0BA2FA92FFE
:10334000982F882720918D04822BBA2FA92F982F90
:10335000882720918E04822B892B8A2B8B2B89F234
:1033600094E19093840481E0809385049093860493
:103370008093870464E670E084E00E945117D82FA0
:10338000882309F4BFCF68E084E894E00E944B15DD
:10339000CD2FB8CF0E94B73685ED8093BC008091C9
:1033A000CC049091CD04A091CE04B091CF040796A7
:1033B000A11DB11D23E0B695A795979587952A95F0
:1033C000D1F72091BC0024FD03C01092CA040895D7
:1033D0004091CC045091CD046091CE047091CF0403
:1033E000452B462B472B69F30097A105B10541F00A
:1033F00025E32A95F1F700000197A109B109E1CF72
:103400008091CB040C944B084F925F926F927F9205
:103410008F929F92AF92BF92CF92DF92EF92FF92E4
:10342000CF93DF93EC016A017B0120E030E0A9013A
:10343000CB01B6010E94843387FF04C0F7FAF094F1
:10344000F7F8F0948C8C9D8CAE8CBF8CA701960104
:10345000C501B4010E948433882309F449C06CA9D2
:103460007DA98EA99FA90E948B332B013C01A70146
:103470009601C501B4010E94AA359B01AC01C301AC
:10348000B2010E94EA330E941C366CAB7DAB8EAB5E
:103490009FABA701960160E070E080E090E40E949D
:1034A000AA350E945D3626E53EE04DE25FE30E94CC
:1034B000EA3320E034E244E759E40E94EA3368AF9B
:1034C00079AF8AAF9BAFCC8EDD8EEE8EFF8ECE01B4
:1034D000DF91CF91FF90EF90DF90CF90BF90AF90B2
:1034E0009F908F907F906F905F904F900C94180BEF
:1034F000DF91CF91FF90EF90DF90CF90BF90AF9092
:103500009F908F907F906F905F904F900895CF9293
:10351000DF92EF92FF92CF93DF93EC016A017B0180
:1035200020E030E0A901CB01B6010E94843388235A
:1035300059F0B701A601CE01DF91CF91FF90EF9036
:10354000DF90CF900C94041ADF91CF91FF90EF9011
:10355000DF90CF900895AF92BF92CF92DF92EF921B
:10356000FF920F931F93CF93DF9360E080E30E945D
:10357000770560E08AE20E94770560E082E20E94BF
:10358000770560E08BE10E947705CDEDD2E08BEC12
:10359000C82E82E0D82E93ECE92E92E0F92E63E05B
:1035A000899199910E945711F601019111916F0132
:1035B000F701A190B1907F01F5016281738190E0E4
:1035C00080E00E948933AB01BC01C8010E946A0CF3
:1035D000F5016081718190E080E00E948933AB0148
:1035E000BC01C8010E94871AF2E0C53EDF07B9F6A8
:1035F000DF91CF911F910F91FF90EF90DF90CF90CF
:10360000BF90AF9008952F923F924F925F927F921A
:103610008F929F92AF92BF92CF92DF92EF92FF92E2
:103620000F931F93CF93DF9300D000D01F921F9270
:10363000CDB7DEB761E087E30E9477050E94AB1A41
:103640008091AB029091AC02A091AD02B091AE021C
:103650008D839E83AF83B8870E9475134E0185E0EA
:10366000880E911C94E0792E80919D0290919E028B
:10367000A0919F02B091A002892B8A2B8B2B09F07D
:1036800092C0F401E1904F016091A1027091A202F9
:103690008091A3029091A402AE014F5F5F4F0E9400
:1036A0006F13F12C5701AA0CBB1CF501E553FD4F1C
:1036B00000811181F501ED53FD4FC080D180F601ED
:1036C0006585768590E080E00E948933AB01BC017E
:1036D000C8010E946A0CF6016385748590E080E061
:1036E0000E948933AB01BC01C8010E94871AF60110
:1036F00063897489F501E352FD4F808191810E94B5
:10370000E30DF8011486158616861786108A118A2D
:10371000128A138A14AA15AA16AA17AA14A215A205
:1037200016A217A2148A158A168A178AF6018481AE
:103730000E944E05F8012484358446845784F6019E
:10374000892B09F04BC081859285092E000CAA0BAC
:10375000BB0BAC01BD01420D531D641D751DC8019D
:103760000E94490DC8010E94DC0C8111FBCFF601BB
:1037700084810E944E05892B09F069C0E1E0F0E0E8
:10378000EC0FFD1FEE0DFF1D808182618083CE0155
:1037900001960E9457136093A1027093A202809336
:1037A000A3029093A40281E00E94AC1628960FB663
:1037B000F894DEBF0FBECDBFDF91CF911F910F9167
:1037C000FF90EF90DF90CF90BF90AF909F908F9041
:1037D0007F905F904F903F902F9008954581568144
:1037E00067817085420D531D641D751DC8010E94BF
:1037F000490DF60184810E944E05892B09F0B2C063
:10380000C8010E94600DF801148615861686178679
:10381000108A118A128A138A14AA15AA16AA17AA3C
:1038200014A215A216A217A2148A158A168A178A3C
:10383000F60141855285052E000C660B770BC801F9
:103840000E94490DC8010E94DC0C8111FBCFF601DA
:103850006785708990E080E00E948933AB01BC01EC
:10386000C8010E946A0CF601418552855195419527
:103870005109052E000C660B770BC8010E94490DFB
:10388000F60184810E944E05892B09F086C0C8018B
:103890000E94600DF8011486158616861786108A18
:1038A000118A128A138A14AA15AA16AA17AA14A290
:1038B00015A216A217A2148A158A168A178AE1E0A1
:1038C000F0E0EC0FFD1FEE0DFF1D80818071808305
:1038D000CE0101960E9457136093A1027093A20239
:1038E0008093A3029093A402F6016281738190E019
:1038F00080E00E948933AB01BC01C8010E946A0CC0
:10390000F6016081718190E080E00E948933AB0113
:10391000BC01C8010E94871AF60161897289F5010C
:10392000E352FD4F808191810E94E30DF6014589AC
:103930005689052E000C660B770BC8010E94490DB5
:10394000C8010E94DC0C8111FBCF7A9471108CCEDF
:1039500040E070E060E088EA0E94781685E080939D
:10396000980224CFF801408951896289738984853E
:103970009585A685B785481759076A077B0749F4D7
:10398000E1E0F0E0EC0FFD1FEE0DFF1D8081866091
:10399000FDCEC8010E94DC0C2CCFF8014089518972
:1039A0006289738984859585A685B78548175907E7
:1039B0006A077B0729F3C8010E94DC0C61CFCF9214
:1039C000DF92EF92FF920F931F93CF93DF93EB0160
:1039D0007B0124E0E20EF11C8B016C01C61AD70AB0
:1039E000C601800F911F0E94A834F80181938F01B6
:1039F000EE15FF05A9F7CE01DF91CF911F910F9131
:103A0000FF90EF90DF90CF9008950F931F93CF9387
:103A1000DF938C01EB010E94A8348883C8010196D2
:103A20000E94A8348983CE01DF91CF911F910F911D
:103A30000895AF92BF92CF92DF92EF92FF920F93D1
:103A40001F93CF93DF931F921F92CDB7DEB74EE245
:103A5000E42E43E1F42E882321F03BE2E32E33E110
:103A6000F32E2FEAA22E22E0B22E04E610E0BE01D1
:103A70006F5F7F4FC8010E94051DF501C190D19075
:103A80005F0169817A81F60180819181F701199541
:103A9000F60191838083BE016F5F7F4FC80102965C
:103AA0000E94051D69817A81F60182819381F70167
:103AB0001995F60193838283BE016F5F7F4FC80122
:103AC00004960E94051D69817A81F60184819581A1
:103AD000F7011995F601958384830A5F1F4F0E380D
:103AE000110529F694EDC92E93E0D92EBE016F5F22
:103AF0007F4FC8010E94051D69817A81F60180818E
:103B00009181F7011995F60191838083BE016F5F62
:103B10007F4FC80102960E94051D69817A81F601D6
:103B200082819381F7011995F60193838283BE0107
:103B30006F5F7F4FC80104960E94051D69817A81DD
:103B4000F60184819581F7011995F60195838483A7
:103B50000A5F1F4FF6E0CF0ED11C063081E0180738
:103B600029F68CE8C82E82E0D82EBE016F5F7F4F09
:103B7000C8010E94051D69817A81F60180819181C9
:103B8000F7011995F601819391936F010E5F1F4F15
:103B90000231F1E01F0749F70F900F90DF91CF91AD
:103BA0001F910F91FF90EF90DF90CF90BF90AF905B
:103BB00008958F929F92BF92CF92DF92EF92FF92E1
:103BC0000F931F93CF93DF93CDB7DEB764970FB6F4
:103BD000F894DEBF0FBECDBF82EF94E00E940F07C6
:103BE0000A970CF460C082EF94E00E940F07892BC3
:103BF00039F082EF94E00E94BB068335910599F776
:103C000082EF94E00E940F07892B09F044C078EE00
:103C1000C72E73E0D72E82EF94E00E940F0708971B
:103C20000CF053C021E0C21AD108A8F70E94CF06B9
:103C300097FD05C089830E94CF0697FF8A8360E0C5
:103C40008E010F5F1F4FC8010E943E1380938203B5
:103C50008150990B7C01EE0CFF1C82EF94E00E94D6
:103C60000F078E159F05BCF5C6010197CD2889F574
:103C70004701EFEF8E1A9E0A6801C601801B910B67
:103C80008815990558F50E94CF0697FD27C0F601C3
:103C900081936F01F2CF82EF94E00E94BB068335DF
:103CA000910509F4B4CF64960FB6F894DEBF0FBE49
:103CB000CDBFDF91CF911F910F91FF90EF90DF90DB
:103CC000CF90BF909F908F900895C114D10459F365
:103CD000ADCF6C01C2CFCD2831F3CACFF801EE0DC4
:103CE000FF1D80818A30D9F5F12C8F2C912CB0905A
:103CF0008203EB2DF0E06F0121E0C21AD1088C1491
:103D00009D045CF46F2D660FC8010E943E13F40100
:103D1000EE57FC4F8183F394E8CF912C8FEF9FEF08
:103D20007F0122E0E21AF108292D30E02E153F052F
:103D300044F42E573C4FF90160810E943113939453
:103D4000F3CFD601AE57BC4F3C91F701EE57FC4F75
:103D500020812327322723278217930739F040E059
:103D600070E060E080E00E9478169DCF9CEF9B0D94
:103D7000809183038C3A09F4D4C0A0F5853A09F404
:103D80009CC0A0F4813A59F028F4882309F461C05A
:103D900085EEA0C0823A09F47DC0843AC9F76091EB
:103DA0008403913009F48AC088EE94C0893A09F4FA
:103DB0008AC018F4883A98F3EBCF8A3A09F492C093
:103DC0008B3A31F780919802873009F482C08F3F97
:103DD00009F47FC061E088E30E94770583E0809367
:103DE000980234C0863B09F4F6C0E0F4803B09F445
:103DF000E7C040F48D3A09F4C7C08F3A49F60E94F3
:103E0000161324C0813B09F458C0823B09F6A8016F
:103E100061EE7BE88FE290E00E946F1344E0B8010E
:103E200083EBA1CF8B3B09F409C150F4883B09F423
:103E3000EEC08A3B09F0ACCF81E08093520406C00B
:103E40008C3B09F4FEC08F3F09F0A2CF0E945313B0
:103E50002ACF009172030250110BF12C8FEF9FEFCC
:103E60002F2D30E02017310744F42E583C4FF90134
:103E700060810E943113F394F3CFF801EE58FC4FA8
:103E80009083E0917203F0E0EF58FC4F80830E9432
:103E9000501609CF0E94531387E0F80111928A95BA
:103EA000E9F744E650E0BE016D5E7F4FC8010E9415
:103EB000AC1847E0B80183EA56CF6FEF0E94F616C0
:103EC0008111C4CFF0CE80919802833031F08530DB
:103ED00021F089EE0E94E516E6CE0E9453130E945F
:103EE000031BE1CE80919802833011F0853089F771
:103EF0000E94161365E070E080E090E00E942106C9
:103F00000E94EB1260E087E30E94770560E089E0A1
:103F10000E94770560E088E30E947705109298027E
:103F200095CF933009F040CF80918403873598F581
:103F3000E0908503F0908603FE24EF24FE24BF2C3E
:103F400081E00E94191D0091840310E0000F111FF1
:103F50006801F7E5CF0ED11CC6010E94A8348E156A
:103F600021F06E2DC6010E94B034085A1F4FC801BF
:103F70000E94A8348B1521F06F2DC8010E94B03427
:103F800080E00E94191D62CF913009F00DCFE091C1
:103F90008403E33010F087EE9DCFF0E0EE0FFF1FBB
:103FA000E354FD4F0190F081E02D608171818281A9
:103FB0009381A8010E946F1344E0B8018EEAD3CE2A
:103FC0000E94161365E070E080E090E00E942106F8
:103FD0000E94EB123BCF8091D303815087FD88E193
:103FE000082E000C990B8B5B9F4FB801880F991F0F
:103FF000880F991F0E94DF1C69817A818B819C81C7
:10400000A8010E946F1344E0B80187EBACCE809109
:10401000840390E0880F991FBE016D5E7F4F895A1F
:104020009F4F0E94051DFC01908181819B8B8C8B91
:1040300089839A8342E0B80189EB95CE10925204AD
:1040400005CF913009F0B0CE80918403C8CE1F9285
:104050000F920FB60F9211240BB60F922F933F932E
:104060008F939F93AF93BF93CF93DF93EF93FF9380
:10407000E0915E04F0915F04309749F0A685B78522
:104080009585868D81FF14C08C918923A1F4FF91C1
:10409000EF91DF91CF91BF91AF919F918F913F9120
:1040A0002F910F900BBE0F900FBE0F901F90189581
:1040B0008C91892361F7A389B4899C918589809526
:1040C00089238C93868997890197F1F7208D318D0B
:1040D000C685D78588E0D9011197F1F7988181507D
:1040E000D1F780915D0490E001968F73992720911C
:1040F0005C04281779F090915D0480935D04828DB3
:10410000938D0197F1F7A389B4898C919589892BB7
:104110008C93BDCF868D8160868FF1CF1F920F92D9
:104120000FB60F9211242F933F938F939F93AF93CA
:10413000BF938091540490915504A0915604B0917E
:1041400057043091530423E0230F2D3758F501967F
:10415000A11DB11D209353048093540490935504E2
:10416000A0935604B0935704809158049091590439
:10417000A0915A04B0915B040196A11DB11D8093DA
:10418000580490935904A0935A04B0935B04BF91D0
:10419000AF919F918F913F912F910F900FBE0F90F4
:1041A0001F90189526E8230F0296A11DB11DD2CFAE
:1041B0001F920F920FB60F9211240BB60F922F93EE
:1041C0003F934F935F936F937F938F939F93AF939F
:1041D000BF93EF93FF9386E597E00E942F07FF912F
:1041E000EF91BF91AF919F918F917F916F915F916F
:1041F0004F913F912F910F900BBE0F900FBE0F90DC
:104200001F9018951F920F920FB60F9211240BB6A4
:104210000F922F938F939F93EF93FF93E0916607F5
:10422000F09167078081E0916C07F0916D0782FD46
:104230001DC0908180916F078F5F8F7320917007F1
:10424000821741F0E0916F07F0E0EA5AF84F958F3E
:1042500080936F07FF91EF919F918F912F910F9016
:104260000BBE0F900FBE0F901F9018958081F2CF5C
:104270001F920F920FB60F9211240BB60F922F932D
:104280003F934F935F936F937F938F939F93AF93DE
:10429000BF93EF93FF9382EF94E00E942F07FF916B
:1042A000EF91BF91AF919F918F917F916F915F91AE
:1042B0004F913F912F910F900BBE0F900FBE0F901B
:1042C0001F9018951F920F920FB60F9211240BB6E4
:1042D0000F922F938F939F93EF93FF93E09102059B
:1042E000F09103058081E0910805F091090582FDB8
:1042F0001DC0908180910B058F5F8F7320910C05FD
:10430000821741F0E0910B05F0E0EE50FB4F958FE6
:1043100080930B05FF91EF919F918F912F910F90BB
:104320000BBE0F900FBE0F901F9018958081F2CF9B
:104330001F920F920FB60F9211240BB60F922F936C
:104340003F934F935F936F937F938F939F93AF931D
:10435000BF93EF93FF938091B900887F803609F473
:104360004DC008F040C0883209F4A9C028F580315A
:1043700009F49DC0C8F4882309F4FBC0883009F40F
:1043800096C0FF91EF91BF91AF919F918F917F91D7
:104390006F915F914F913F912F910F900BBE0F90B6
:1043A0000FBE0F901F901895883109F488C0803295
:1043B00041F78093C80414C0803409F49DC040F4D0
:1043C0008033B9F38833E9F68093C80485ECB0C034
:1043D000803509F485C0883509F496C0883489F69B
:1043E0000E94CC19CECF883909F48CC038F58837B3
:1043F00029F050F4883611F0803719F683E0809365
:10440000CA041092D20357C0883809F47BC080399F
:1044100019F0803809F0B5CF8091D203803208F0CE
:1044200071C0E091D20381E08E0F8093D20380911E
:10443000BB00F0E0EE54FC4F80833DC0803B39F080
:10444000E0F4803A09F479C0883A09F09ACF84E020
:104450008093CA041092AF031092AE03E091AC03B4
:10446000F091AD0319958091AE0381110FC081E0E9
:104470008093AE0310928C0309C0803C09F4A6CF50
:10448000883C09F4A3CF883B09F07BCFE091AF03D0
:1044900081E08E0F8093AF03F0E0E457FC4F808102
:1044A0008093BB009091AF038091AE0329C08091AF
:1044B000C5048093BB0085EC8093BC0062CF9091D3
:1044C000C7048091C604981758F5E091C70481E0AD
:1044D0008E0F8093C704F0E0EC55FB4F8081E9CF4D
:1044E000E091C70481E08E0F8093C7048091BB00E8
:1044F000F0E0EC55FB4F80839091C7048091C60497
:104500009817C8F285E8D8CFE091C70481E08E0FF4
:104510008093C7048091BB00F0E0EC55FB4F808393
:104520008091C90481115CCF81E08093C40484EA46
:104530008093BC001092CA0424CF85EC8093BC0009
:104540001092CA048091D203803230F4E091D203F9
:10455000F0E0EE54FC4F10826091D20370E0E091E5
:10456000B003F091B10382EB93E019951092D2035E
:1045700008CF1092C80434CFCF92DF92EF92FF920F
:10458000FC01362F128213828481807F168217826B
:104590009085907F90874EEA57E461EE7DE34187F6
:1045A000528763877487C12CD12CE12C9FE3F92EAD
:1045B000C586D686E786F08AA7E2B3E0B183A083FA
:1045C000128A118A438B548B658B768B178A918D57
:1045D000128E238D207F238F158E148E168E178EAC
:1045E00010A211A215A614A617A616A611AA10AA03
:1045F00032AB26E537E033A722A721E0208F9C7F4E
:104600009160918F8160848384E1858383E590E06C
:10461000A0E0B0E182A393A3A4A3B5A384E290E0B9
:10462000ADE0B1EC86A397A3A0A7B1A7FF90EF9050
:10463000DF90CF900895CF93DF93EC0189EE92E065
:104640009983888381E08B831C861D861E861F8646
:10465000188A198A1A8A1B8A1C8A1D8A1E8A1F8A2E
:1046600080E090E0A0E8BFE3888F998FAA8FBB8F8E
:104670001C8E1D8E1E8E1F8E88A399A3AAA3BBA37A
:104680001CA21DA21EA21FA221E030E03DA72CA764
:104690002FEF2FA718A619A61AA61BA66C834D8369
:1046A00024E02E8325E02F831EA61CAA1DAA1EAA85
:1046B0001FAA18AE19AE1AAE1BAE1CAE1DAE1EAEB2
:1046C0001FAEFE01E05CFF4F80839183A283B38322
:1046D0001A82188619861A861B86CE010E94F70850
:1046E00040E050E060E87FE3CE01DF91CF910C9491
:1046F000041ACF93DF93E6E5F7E01382128288EE87
:1047000093E0A0E0B0E084839583A683B78323E0A1
:1047100033E0318320834DEC50E0558744874CECE7
:1047200050E05787468748EC50E0518B408B49EC6E
:1047300050E0538B428B4AEC50E0558B448B4EEC4F
:1047400050E0578B468B118E128E138E148EE2EF33
:10475000F4E01382128284839583A683B783318326
:10476000208325EC30E03587248724EC30E0378740
:10477000268720EC30E0318B208B21EC30E0338B2E
:10478000228B22EC30E0358B248B26EC30E0378B0B
:10479000268B118E128E138E148EEFE8F5E01382A5
:1047A000128284839583A683B78385E193E0918306
:1047B000808384E080932C0860E00E94A50560E07F
:1047C00083EF97E00E94BC22A3EFB7E0C7E2D3E0FB
:1047D0001196DC93CE93E6E2F8E01082118282819A
:1047E000807F8283D6961C92D697D8961C921E9272
:1047F000D79761E08DE197E00E94BC22ADE1B7E080
:104800001196DC93CE93E0E5F7E01082118282816D
:10481000807F8283D6961C92D697D8961C921E9241
:10482000D79762E084EE96E00E94BC22A4EEB6E048
:104830001196DC93CE93E7E1F7E01082118282813A
:10484000807F8283D6961C92D697D8961C921E9211
:10485000D79763E08BEA96E00E94BC22ABEAB6E011
:104860001196DC93CE93EEEDF6E0108211828281F8
:10487000807F8283D6961C92D697D8961C921E92E1
:10488000D7974FE26EE287E696E00E941B234CE248
:104890006DE283E296E00E941B2348E269E28FED1D
:1048A00095E00E941B234DE16CE18BE995E0DF91DF
:1048B000CF910C941B23CF93DF93CDB7DEB7C85CA9
:1048C000D1090FB6F894DEBF0FBECDBF789484B582
:1048D000826084BD84B5816084BD85B5826085BDFC
:1048E00085B5816085BD80916E00816080936E008A
:1048F000109281008091810082608093810080917C
:10490000810081608093810080918000816080932C
:1049100080008091B10084608093B1008091B000EC
:1049200081608093B00080919100826080939100BB
:1049300080919100816080939100809190008160CE
:10494000809390008091A10082608093A10080916B
:10495000A10081608093A1008091A000816080937C
:10496000A00080912101826080932101809121012A
:1049700081608093210180912001816080932001DA
:1049800080917A00846080937A0080917A008260BE
:1049900080937A0080917A00816080937A00809180
:1049A0007A00806880937A001092C100E09102053D
:1049B000F091030502E00083E091FE04F091FF0412
:1049C0001082E0910005F091010587E0808310924C
:1049D0000A05E0910605F091070516E01083E091C5
:1049E0000405F0910505808180618083E0910405D4
:1049F000F0910505808188608083E0910405F09145
:104A00000505808180688083E0910405F0910505AB
:104A100080818F7D80838FE090E0A0E0B0E0809384
:104A2000F6049093F704A093F804B093F9040E945D
:104A30005313E0916607F09167070083E0916207E6
:104A4000F09163071082E0916407F091650780E1BF
:104A5000808310926E07E0916A07F0916B071083D4
:104A6000E0916807F0916907808180618083E0911F
:104A70006807F0916907808188608083E09168070A
:104A8000F0916907808180688083E0916807F091E8
:104A9000690780818F7D808361E083E00E94A505A6
:104AA00061E083E00E94770561E089E00E94A5054E
:104AB00061E087E30E94A50562E087E10E94A50509
:104AC00062E08AE30E94A50562E08BE30E94A505EF
:104AD00061E08AE00E94A50561E08BE00E94A505E7
:104AE00062E087E00E94A50560E085E40E94A505DC
:104AF0000E94161461E088E30E94A50560E086E349
:104B00000E94A50560E084E40E94A50561E088E3B9
:104B10000E94770561E080E30E94A50561E08AE2DA
:104B20000E94A50561E082E20E94A50561E08BE19B
:104B30000E94A50561E080E30E94770561E08AE2BA
:104B40000E94770561E082E20E94770561E08BE1D7
:104B50000E94770562E081E20E94A50562E080E2A2
:104B60000E94A50562E08FE10E94A50562E08EE14A
:104B70000E94A50560E083E00E9477050E9447142B
:104B80004091990250919A0260919B0270919C020F
:104B9000811169C140624093990250939A026093D7
:104BA0009B0270939C02E4E1EE2EFF24F394812C8F
:104BB000912C540110E0BE016F5F7F4FC7010E942E
:104BC000DF1C89819A81AB81BC8188159905AA0572
:104BD000BB0508F04AC11093D30380E00E94191D61
:104BE00044ED53E080E095E560EB73E1FA0120E8E5
:104BF0003CE0318320839383828375836483205ECA
:104C00003C4F36962032ACE13A0799F7425E5F4F4F
:104C10008A5992408839BAE49B0741F70E946B1485
:104C20000E9416140E947513882331F0809151045C
:104C3000811102C00E949A116DEDE62E62E0F62EFF
:104C400073ECA72E72E0B72E0BEC12E0F801819006
:104C500091908F01D501CD90DD905D01F6016081CD
:104C6000718190E080E00E948933AB01BC01C401F6
:104C70000E94871AD60112966D917C9190E080E097
:104C80000E948933AB01BC01C4010E946A0C80916F
:104C90005104882341F0F60161897289D7018D9111
:104CA0009C910E94E30DB2E0EB0EF11CE2E0033DAB
:104CB0001E0761F60E9470194091990250919A0264
:104CC00060919B0270919C028111DBC04064409313
:104CD000990250939A0260939B0270939C0286E320
:104CE0000E94E1054091990250919A0260919B02C5
:104CF00070919C02813293400CF0C5C04860409393
:104D0000990250939A0260939B0270939C0280E0F8
:104D10000E94AC168091990290919A02A0919B02F8
:104D2000B0919C02892B8A2B8B2B09F4AEC08FEF9C
:104D30008093980210922B0681E080932C0680933A
:104D4000510610926F06109270068093950615E03A
:104D500087E10E944E05892B09F0FBC16AE070E0F3
:104D600080E090E00E942106115091F785E497E0E1
:104D70000E94C1148BE197E00E94C11487EF96E076
:104D80000E94C11484EC96E00E94C11483E896E06E
:104D90000E94C11480E596E00E94C1148EE196E065
:104DA0000E94C1148FEE95E00E94C1148CEB95E037
:104DB0000E94C11489E895E00E94C11486E595E03F
:104DC0000E94C11480E295E00E94C11484E095E045
:104DD0000E94C1140E94AB1A82EF94E00E940F0758
:104DE000892B09F44FC2CE0101967C0110E000E04E
:104DF0000E94CF0697FD0BC08A30910541F0D70184
:104E00008D937D010F5F1F4F083C110589F7E1E08D
:104E1000F0E0EC0FFD1FE00FF11F10828AEF94E02D
:104E20000E949E07CE0101960E94B41481E493E093
:104E30000E94B41489818D3609F4BDC00CF052C0B3
:104E4000853609F482C1D4F5833409F40EC2813663
:104E500009F4D8C18BE194E00E94C11482EF94E080
:104E60000E94B907B9CF4F7D96CE1F5F24E0E20EB6
:104E7000F11C4C015D01193109F09DCE1092D30354
:104E8000ACCE4F7B24CF477F3ACF61E08BE00E94CE
:104E9000770561E089E00E94770564E170E080E0D9
:104EA00090E00E94210660E089E00E94770560E0C2
:104EB00088E30E947705109298023CCF883609F467
:104EC0003DC18B3639F682E794E00E94C1140E94FE
:104ED000161362E370E080E090E00E9421060E94D9
:104EE000EB127ACF833709F46AC10CF05BC08037CC
:104EF00009F487C0823709F0ADCF8AEB94E00E94B5
:104F0000C1140BEC12E0D801ED91FD918D01648587
:104F10007585868597850E943C16B2E0033D1B0788
:104F200091F78AEA94E00E94C1140BEC12E0D801D8
:104F3000ED91FD918D01C08CD18CE28CF38CA70199
:104F40009601C701B6010E949D36882309F460C00E
:104F50008DE593E00E94B41481E493E00E94B414C0
:104F6000B2E0033D1B0719F78AE994E00E94C114DF
:104F700003EC12E0D801ED91FD918D0184810E9436
:104F80004E05BC01990F880B990B97FFD3C00E9467
:104F90002A1581E493E00E94B414B2E00B3C1B0795
:104FA00049F71ACF883709F450C18A3709F456C136
:104FB000843709F04FCF8A810E94CF14182FCE0179
:104FC00003960E9448336B017C0189818D3609F478
:104FD000DCC0843709F000CF89E094E00E949E078E
:104FE000C701B6010E943C16E12FF0E0EE0FFF1F53
:104FF000E553FD4FB701A601808191810E94490DC3
:10500000EBCE86EE94E00E94C1140E941613E4CE0B
:1050100046015701E894B7F82FEF3FEF4FE75FE7FE
:10502000C501B4010E949D3681110DC02FEF3FEFE5
:105030004FE75FE7C501B4010E94843318161CF4E2
:1050400081E693E087CF2FEF3FEF4FE75FE4C701A3
:10505000B6010E94523618161CF485E693E07ACF0A
:105060002FEF3FEF4FE75FECC701B6010E9484339B
:1050700087FDF3CF20E030E0A901C701B6010E940F
:10508000843387FF09C06DE282EF94E00E945107EC
:10509000F7FAF094F7F8F0942AE037ED43EA5BE38F
:1050A000C701B6010E943E354B015C010E942336C8
:1050B0006B017C010E9489339B01AC01C501B401E5
:1050C0000E943D354B015C014AE0C701B6010E94D8
:1050D000E6146EE282EF94E00E94510720E030E097
:1050E00040E251E4C501B4010E94EA334B015C0186
:1050F0000E9423366B01F12CE12C4AE0C701B60176
:105100000E94E614C701B6010E9489339B01AC01DD
:10511000C501B4010E943D3520E030E040E251E499
:105120000E94EA330E94233690E080E04AE00E9429
:10513000E61412CF4AE00E94E6142BCF87E894E0F1
:105140000E94C1140E94031B47CE8FE594E00E9489
:10515000C11486E0F82E97E0C92E26E0B22E33E087
:10516000E32E4FE0A42E50E2752E809198028530F8
:1051700009F4C1C008F08FC0882309F4B2C083309D
:1051800009F4AFC00E94D907F0CF87EF93E00E94E7
:105190009E07C701B6010E943C16E12FF0E0EE0F1A
:1051A000FF1FE553FD4F80819181FC0144855585AA
:1051B000668577854C0D5D1D6E1D7F1D1FCFCE0151
:1051C00003960E9448336B017C0188E494E00E94BE
:1051D0009E07C701B6010E943C168A810E94CF1427
:1051E000182FC701B6010E948B33AB01BC01E12F20
:1051F000F0E0EE0FFF1FE553FD4F808191810E948B
:105200006A0CEACDCE0103960E9448336B017C0103
:105210008AE294E00E949E07C701B6010E943C16F4
:105220008A810E94CF14182FC701B6010E948B33C8
:10523000AB01BC01E12FF0E0EE0FFF1FE553FD4F86
:10524000808191810E94871AC7CD60918002709100
:10525000810283EF97E00E94E30DBECD6091800252
:1052600070918102660F771FF4CF10E000E060E0DC
:10527000C8010E94B0340F5F1F4F043FF1E01F07C9
:10528000B1F7AACD08E813E181E00E94CD120150E8
:105290001109D1F7A1CD873011F40C949A328F3FC8
:1052A00009F070CF8091990290919A02A0919B028F
:1052B000B0919C0280FD02C00C94B1320E946B142C
:1052C0008091990290919A02A0919B02B0919C02C8
:1052D000892B8A2B8B2B11F40C9444331092980257
:1052E00051CF0E94D91D80915204882309F44ACFDE
:1052F0000E94F01847CF0E94D91D8091520481115D
:105300000E94F01888EE882E83E0982E98E1292ECE
:1053100026E1622E34E1532E4BE0442E59E0352E27
:1053200065E0D62E00914F04053A09F4D6C360F427
:10533000013AB9F0043A09F46EC201110EC081E0DD
:10534000881A910879F71ECF073A09F427C608F49E
:105350007FC4013B11F40C9439328AEE0E94E516A9
:10536000EECF10914E04E0914C04EC3210F00C940E
:105370004232F0E08827E054F64D8F4F0C94FF3412
:10538000EC29F029122A1E2A2A2A362A522A4232C7
:1053900042324232423242324232423242325B2A5C
:1053A000672A732A862A922AA42AB02AC02ACC2ADB
:1053B000F12AFD2A282B4232423242324232322B2B
:1053C0004D2B592B692B752B992BA52BB32BBF2B51
:1053D000CF2BDB2BFF2B4B3281E080934C04AFCFE4
:1053E0008091EC039091ED03B0E0A0E04091730652
:1053F0005091740660917506709176068417950732
:10540000A607B70764F448EB5BE060E070E08FED5F
:1054100095E00E94490D82E080934C0490CFD09299
:105420004C048DCF81E00E94CD12882309F487CFF0
:1054300080914C048F5F80934C0481CF44E650E010
:1054400060E070E083E296E00E94490D84E0809382
:105450004C0475CF81E00E94CD12882309F46FCFF0
:1054600080914C048F5F80934C0469CFF19EF001D2
:105470001124EC52FC4F408151814351514070E066
:1054800060E087E696E00E94490D409196025091B7
:10549000970270E060E08BE995E00E94490DB092C0
:1054A0004C044DCF81E00E94CD12882309F447CFF0
:1054B000A0924C0444CF4CEA5DE060E070E08FEDD8
:1054C00095E00E94490D80E180934C0438CF81E043
:1054D0000E94CD12882309F432CF80914C048F5F53
:1054E00080934C042CCFF19EF0011124EC52FC4F20
:1054F000428153814659510970E060E083E296E0B1
:105500000E94490D82E180934C0419CF81E00E94F2
:10551000CD12882309F413CF80914C048F5F8093C0
:105520004C040DCFF19EF0011124EC52FC4F44814C
:105530005581052E000C660B770B8FED95E00E94D0
:10554000490D50924C04FBCE81E00E94CD1288237D
:1055500009F4F5CE80914C048F5F80934C04EFCE1C
:10556000F19EF0011124EC52FC4F4281538170E016
:1055700060E083E296E00E94490D60924C04DFCE29
:1055800081E00E94CD12882309F4D9CE80914C0489
:105590008F5F80934C04D3CE609180027091810222
:1055A000660F771F83EF97E00E94E30D40E050E81D
:1055B0006BE375E487E696E00E946A0CF19EF001C9
:1055C0001124EC52FC4F4081518170E060E087E68D
:1055D00096E00E94490D80914C048F5F80934C04AB
:1055E000AECE81E00E94CD12882309F4A8CE80912E
:1055F0004C048F5F80934C04A2CE60918002709126
:10560000810283EF97E00E94E30D60917102709137
:10561000720290E080E00E948933AB01BC0187E612
:1056200096E00E946A0CF19EF0011124EC52FC4FAE
:1056300042815381485A544E70E060E083E296E024
:105640000E94490D80914C048F5F80934C0477CE6B
:1056500081E00E94CD12882309F471CE8FE18093FE
:105660004C046DCE40918602509187024E5C5F4F94
:1056700070E060E087E696E00E94490D40918A0262
:1056800050918B02052E000C660B770B8FED95E089
:105690000E94490D70924C0452CE81E00E94CD12BE
:1056A000882309F44CCE80914C048F5F80934C0486
:1056B00046CE40918802509189024C575C4F70E071
:1056C00060E083E296E00E94490D82E280934C0400
:1056D00036CE81E00E94CD12882309F430CE80912D
:1056E0004C048F5F80934C042ACE609180027091AD
:1056F0008102660F771F83EF97E00E94E30D40E081
:1057000050E86BE375E487E696E00E946A0C4091EE
:105710008602509187024A50510970E060E087E6A6
:1057200096E00E94490D80914C048F5F80934C0459
:1057300006CE81E00E94CD12882309F400CE80912C
:105740004C048F5F80934C04FACD409188025091B5
:10575000890270E060E083E296E00E94490D86E2F3
:1057600080934C04ECCD81E00E94CD12882309F493
:10577000E6CD80914C048F5F80934C04E0CD409146
:105780008602509187024351514070E060E087E605
:1057900096E00E94490D88E280934C04D0CD81E0D0
:1057A0000E94CD12882309F4CACD80914C048F5FEA
:1057B00080934C04C4CD609180027091810283EF8C
:1057C00097E00E94E30D609171027091720290E087
:1057D00080E00E948933AB01BC0187E696E00E941D
:1057E0006A0C4CEA5DE060E070E08FED95E00E94AD
:1057F000490D80914C048F5F80934C04A0CD81E0D3
:105800000E94CD12882309F49ACD80914C048F5FB9
:1058100080934C0494CD10914E04E0914C04E531FA
:1058200008F030C6F0E08827E75EF34D8F4F0C9408
:10583000FF342E2C412C4D2C582C642C6F2C7B2C9F
:105840008F2C9B2CBB2CC72CDF2CEB2C0A2D162D60
:105850002F2D3B2D472D532D612D4B3280914D0423
:10586000863A61F048EB5BE060E070E08FED95E038
:105870000E94490D81E080934C0461CDB0924C04AC
:105880005ECD81E00E94CD12882309F458CD80912D
:105890004C048F5F80934C0452CD48E65BE060E09F
:1058A00070E087E696E00E94490DE0924C0447CDF7
:1058B00081E00E94CD12882309F441CD80914C04EF
:1058C0008F5F80934C043BCD44E650E060E070E095
:1058D00083E296E00E94490DD0924C0430CD81E0E5
:1058E0000E94CD12882309F42ACD80914C048F5F49
:1058F00080934C0424CDE12FF0E0EE0FFF1FED521A
:10590000FD4F0190F081E02D4081518170E060E019
:1059100087E696E00E94490DC0924C0410CD81E0CC
:105920000E94CD12882309F40ACD80914C048F5F28
:1059300080934C0404CD012F10E0000F111FF801DB
:10594000ED52FD4F0190F081E02D4281538170E0D6
:1059500060E083E296E00E94490DF801E457FD4FB4
:105960004081518170E060E08BE995E00E94490D33
:1059700030924C04E4CC81E00E94CD12882309F4DB
:10598000DECC80914C048F5F80934C04D8CCE12F07
:10599000F0E0EE0FFF1FED52FD4F0190F081E02D82
:1059A0004481558148515C4F052E000C660B770BE6
:1059B0008FED95E00E94490D40924C04C0CC81E0EF
:1059C0000E94CD12882309F4BACC80914C048F5FD9
:1059D00080934C04B4CC40E050E06AEF74E48FED67
:1059E00095E00E946A0CE12FF0E0EE0FFF1FED52F0
:1059F000FD4F0190F081E02D44815581052E000C72
:105A0000660B770B8FED95E00E94490D8DE080933A
:105A10004C0495CC81E00E94CD12882309F48FCCF0
:105A200080914C048F5F80934C0489CC6091540228
:105A30007091550290E080E00E948933AB01BC0177
:105A40008FED95E00E946A0C4CE25CE460E070E04F
:105A500083E296E00E94490DA0924C0470CC81E054
:105A60000E94CD12882309F46ACC80914C048F5F88
:105A700080934C0464CC40EA5FE060E070E08FED1E
:105A800095E00E94490D81E180934C0458CC81E05F
:105A90000E94CD12882309F452CC80914C048F5F70
:105AA00080934C044CCC4091690250916A0270E0A2
:105AB00060E087E696E00E94490D83E180934C0404
:105AC0003ECC81E00E94CD12882309F438CC80912D
:105AD0004C048F5F80934C0432CCE0914C04E9304D
